0142065900999992022010100004+49633+006233FM-12+036799999V0202101N00301001201C9006000199+01001+00951102701ADDAA106999999AY151011AY221011GA1051+001201071GE19AGL   +99999+99999GF108991051999001201999999MA1999999098181MD1310081+9999MW1021REMSYN004BUFR
0165065900999992022010100204+49627+006212FM-15+037699999V0201601N00211007321CN002800199+01001+00901999999ADDAW1101GA1081+007321999GE19AGL   +99999+99999GF199999081999007321999999MA1102601999999REMMET068METAR ELLX 010020Z AUTO 16004KT 2800 BR OVC024/// 10/09 Q1026 NOSIG=
0173065900999992022010100504+49627+006212FM-15+037699999V0201901V00211000301CN002000199+01001+00901999999ADDAW1101GA1081+000301999GE19AGL   +99999+99999GF199999081999000301999999MA1102601999999REMMET076METAR ELLX 010050Z AUTO 19004KT 160V230 2000 BR OVC001/// 10/09 Q1026 NOSIG=
0131065900999992022010101004+49633+006233FM-12+036799999V0201901N0020100030199002600199+00971+00941102711ADDAW1101AY111011AY211011GA1071+000301999GE19AGL   +99999+99999GF108991071999000301999999MA1999999098191MD1110101+9999REMSYN004BUFR
0165065900999992022010101204+49627+006212FM-15+037699999V0201901N00261000301CN002000199+01001+00901999999ADDAW1101GA1081+000301999GE19AGL   +99999+99999GF199999081999000301999999MA1102601999999REMMET068METAR ELLX 010120Z AUTO 19005KT 2000 BR OVC001/// 10/09 Q1026 NOSIG=
0177065900999992022010101504+49627+006212FM-15+037699999V0201801N00261000301WN999999999+01001+00901999999ADDED124U99999GA1091+000301999GE19AGL   +99999+99999GF109991091999000301999999MA1102601999999REMMET075METAR ELLX 010150Z AUTO 18005KT //// R24/P2000N // VV001 10/09 Q1026 NOSIG=
0131065900999992022010102004+49633+006233FM-12+036799999V0201701N0030199999999000200199+00961+00951102691ADDAW1341AY131011AY211011GA1999+000301999GE19AGL   +99999+99999GF199999999999000301999999MA1999999098171MD1010011+9999REMSYN004BUFR
0181065900999992022010102204+49627+006212FM-15+037699999V0201901N00311000611WN999999999+01001+00901999999ADDED124U99999GA1091+000611999GE19AGL   +99999+99999GF109991091999000611999999MA1102601999999REMMET079METAR ELLX 010220Z AUTO 19006KT //// R24/0800V1100U // VV002 10/09 Q1026 NOSIG=
0178065900999992022010102504+49627+006212FM-15+037699999V0202201N00361000301WN000800199+00901+00901999999ADDED124U99999GA1091+000301999GE19AGL   +99999+99999GF109991091999000301999999MA1102601999999MW1441REMMET070METAR ELLX 010250Z 22007KT 0800 R24/P2000N FG VV001 09/09 Q1026 NOSIG=
0131065900999992022010103004+49633+006233FM-12+036799999V0202201N0030199999999000800199+00951+00941102711ADDAY121011AY221011GA1999+000301999GE19AGL   +99999+99999GF199999999999000301999999MA1999999098191MD1310011+9999MW1451REMSYN004BUFR
0128065900999992022010103204+49627+006212FM-15+037699999V0202101N003119999999N000800199+00905+00905999999ADDMA1102605999999MW1455REMMET076METAR ELLX 010320Z 21006KT 0800 0900// R24/1900D FG VV001 09/09 Q1026 NOSIG=EQDD01      0ADE735
0178065900999992022010103504+49627+006212FM-15+037699999V0202201N00311000611WN000800199+00901+00901999999ADDED124U99999GA1091+000611999GE19AGL   +99999+99999GF109991091999000611999999MA1102601999999MW1441REMMET070METAR ELLX 010350Z 22006KT 0800 R24/P2000N FG VV002 09/09 Q1026 NOSIG=
0131065900999992022010104004+49633+006233FM-12+036799999V0202201N0030199999999000800199+00951+00941102701ADDAY141011AY241011GA1999+000601999GE19AGL   +99999+99999GF199999999999000601999999MA1999999098181MD1610011+9999MW1451REMSYN004BUFR
0178065900999992022010104204+49627+006212FM-15+037699999V0202201N00361000611WN000800199+00901+00901999999ADDED124U99999GA1091+000611999GE19AGL   +99999+99999GF109991091999000611999999MA1102601999999MW1441REMMET070METAR ELLX 010420Z 22007KT 0800 R24/P2000N FG VV002 09/09 Q1026 NOSIG=
0177065900999992022010104504+49627+006212FM-15+037699999V0202101N00361000301WN000800199+00901+00901999999ADDED124U99999GA1091+000301999GE19AGL   +99999+99999GF109991091999000301999999MA1102601999999MW1441REMMET069METAR ELLX 010450Z 21007KT 0800 R24/1200D FG VV001 09/09 Q1026 NOSIG=
0131065900999992022010105004+49633+006233FM-12+036799999V0202001N0030199999999000800199+00921+99999102661ADDAY141011AY241011GA1999+000301999GE19AGL   +99999+99999GF199999999999000301999999MA1999999098141MD1810031+9999MW1451REMSYN004BUFR
0182065900999992022010105204+49627+006212FM-15+037699999V0202301N00361000301WN000300199+00901+00901999999ADDED124U99999GA1091+000301999GE19AGL   +99999+99999GF109991091999000301999999MA1102601999999MW1441REMMET074METAR ELLX 010520Z 23007KT 0300 R24/0800V1000N FG VV001 09/09 Q1026 NOSIG=
0177065900999992022010105504+49627+006212FM-15+037699999V0202301N00311000611WN000500199+00901+00901999999ADDED124U99999GA1091+000611999GE19AGL   +99999+99999GF109991091999000611999999MA1102601999999MW1441REMMET069METAR ELLX 010550Z 23006KT 0500 R24/0750N FG VV002 09/09 Q1026 NOSIG=
0167065900999992022010106004+49633+006233FM-12+036799999V0202301N0040199999999000500199+00911+00911102671ADDAA112999999AY141011AY241011GA1999+000601999GE19AGL   +99999+99999GF199999999999000601999999IA2999+00709KA1120N+00891MA1999999098141MD1610041+9999MW1431REMSYN004BUFR
0182065900999992022010106204+49627+006212FM-15+037699999V0202301N00361000611WN000300199+00901+00901999999ADDED124U99999GA1091+000611999GE19AGL   +99999+99999GF109991091999000611999999MA1102601999999MW1441REMMET074METAR ELLX 010620Z 23007KT 0300 R24/1100V1700U FG VV002 09/09 Q1026 NOSIG=
0185065900999992022010106504+49627+006212FM-15+037699999V0201901V00211000611WN000300199+00901+00901999999ADDED124U99999GA1091+000611999GE19AGL   +99999+99999GF109991091999000611999999MA1102601999999MW1441REMMET077METAR ELLX 010650Z 19004KT 150V210 0300 R24/0750N FG VV002 09/09 Q1026 NOSIG=
0231065900999992022010107004+49617+006217FM-12+037699999V0202001N00301000601WN000300199+00911+00911102711ADDAY141021AY241021GA1091+000601999GE19AGL   +99999+99999GF109991091999000601999999MA1999999098181MD1510001+9999MW1451OD139900501999OD259900401999REMSYN07606590 41/03 92003 10091 20091 39818 40271 55000 74544 333 89/02 91105 91204=
0185065900999992022010107204+49627+006212FM-15+037699999V0201901V00261000611WN000100199+00901+00901999999ADDED124U99999GA1091+000611999GE19AGL   +99999+99999GF109991091999000611999999MA1102601999999MW1441REMMET077METAR ELLX 010720Z 19005KT 160V220 0100 R24/0800N FG VV002 09/09 Q1026 NOSIG=
0185065900999992022010107504+49627+006212FM-15+037699999V0202001V00311000611WN000100199+00901+00901999999ADDED124U99999GA1091+000611999GE19AGL   +99999+99999GF109991091999000611999999MA1102601999999MW1441REMMET077METAR ELLX 010750Z 20006KT 160V220 0100 R24/0400N FG VV002 09/09 Q1026 NOSIG=
0131065900999992022010108004+49633+006233FM-12+036799999V0201801N0030199999999000100199+00861+00861102721ADDAY141011AY241011GA1999+000601999GE19AGL   +99999+99999GF199999999999000601999999MA1999999098181MD1110041+9999MW1451REMSYN004BUFR
0185065900999992022010108204+49627+006212FM-15+037699999V0202301V00311000611WN000100199+00801+00801999999ADDED124U99999GA1091+000611999GE19AGL   +99999+99999GF109991091999000611999999MA1102701999999MW1441REMMET077METAR ELLX 010820Z 23006KT 200V290 0100 R24/0500N FG VV002 08/08 Q1027 NOSIG=
0190065900999992022010108504+49627+006212FM-15+037699999V0202001V00211000611WN000200199+00801+00801999999ADDED124U99999GA1091+000611999GE19AGL   +99999+99999GF109991091999000611999999MA1102701999999MW1441REMMET082METAR ELLX 010850Z 20004KT 140V270 0200 R24/0600N FG VV002 08/08 Q1027 BECMG 0800=
0131065900999992022010109004+49633+006233FM-12+036799999V0202101N0020199999999000200199+00851+00841102781ADDAY141011AY241011GA1999+000601999GE19AGL   +99999+99999GF199999999999000601999999MA1999999098241MD1310091+9999MW1451REMSYN004BUFR
0182065900999992022010109204+49627+006212FM-15+037699999V0202101N00261000611WN000200199+00901+00901999999ADDED124U99999GA1091+000611999GE19AGL   +99999+99999GF109991091999000611999999MA1102701999999MW1441REMMET074METAR ELLX 010920Z 21005KT 0200 R24/0325N FG VV002 09/09 Q1027 BECMG 0800=
0195065900999992022010109504+49627+006212FM-15+037699999V0201901V00261000611WN000200199+00901+00901999999ADDED124U99999GA1091+000611999GE19AGL   +99999+99999GF109991091999000611999999MA1102701999999MW1441REMMET087METAR ELLX 010950Z 19005KT 160V220 0200 R24/0350V0500N FG VV002 09/09 Q1027 BECMG 0800=
0131065900999992022010110004+49633+006233FM-12+036799999V0201901N0030199999999000200199+00851+00851102771ADDAY141011AY241011GA1999+000601999GE19AGL   +99999+99999GF199999999999000601999999MA1999999098231MD1010051+9999MW1451REMSYN004BUFR
0182065900999992022010110204+49627+006212FM-15+037699999V0202101N00211000611WN000100199+00801+00801999999ADDED124U99999GA1091+000611999GE19AGL   +99999+99999GF109991091999000611999999MA1102701999999MW1441REMMET074METAR ELLX 011020Z 21004KT 0100 R24/0325N FG VV002 08/08 Q1027 BECMG 0800=
0185065900999992022010110504+49627+006212FM-15+037699999V0201801V00261000301WN000100199+00901+00901999999ADDED124U99999GA1091+000301999GE19AGL   +99999+99999GF109991091999000301999999MA1102701999999MW1441REMMET077METAR ELLX 011050Z 18005KT 150V210 0100 R24/0250N FG VV001 09/09 Q1027 NOSIG=
0131065900999992022010111004+49633+006233FM-12+036799999V0201801N0030199999999000100199+00851+00851102791ADDAY141011AY241011GA1999+000301999GE19AGL   +99999+99999GF199999999999000301999999MA1999999098251MD1110071+9999MW1471REMSYN004BUFR
0177065900999992022010111204+49627+006212FM-15+037699999V0201801N00261000301WN000100199+00901+00901999999ADDED124U99999GA1091+000301999GE19AGL   +99999+99999GF109991091999000301999999MA1102601999999MW1441REMMET069METAR ELLX 011120Z 18005KT 0100 R24/0250N FG VV001 09/09 Q1026 NOSIG=
0177065900999992022010111504+49627+006212FM-15+037699999V0201701N00211000301WN000100199+00901+00901999999ADDED124U99999GA1091+000301999GE19AGL   +99999+99999GF109991091999000301999999MA1102601999999MW1441REMMET069METAR ELLX 011150Z 17004KT 0100 R24/0225N FG VV001 09/09 Q1026 NOSIG=
0142065900999992022010112004+49633+006233FM-12+036799999V0201701N0020199999999000100199+00851+00851102711ADDAA106999999AY141011AY241011GA1999+000301999GE19AGL   +99999+99999GF199999999999000301999999MA1999999098171MD1810071+9999MW1451REMSYN004BUFR
0185065900999992022010112204+49627+006212FM-15+037699999V0202001V00151000301WN000100199+00901+00901999999ADDED124U99999GA1091+000301999GE19AGL   +99999+99999GF109991091999000301999999MA1102501999999MW1441REMMET077METAR ELLX 011220Z 20003KT 160V230 0100 R24/0250N FG VV001 09/09 Q1025 NOSIG=
0177065900999992022010112504+49627+006212FM-15+037699999V0201401N00261000301WN000100199+00901+00901999999ADDED124U99999GA1091+000301999GE19AGL   +99999+99999GF109991091999000301999999MA1102501999999MW1441REMMET069METAR ELLX 011250Z 14005KT 0100 R24/0250N FG VV001 09/09 Q1025 NOSIG=
0131065900999992022010113004+49633+006233FM-12+036799999V0201301N0020199999999000100199+00901+00891102581ADDAY141011AY241011GA1999+000301999GE19AGL   +99999+99999GF199999999999000301999999MA1999999098051MD1810181+9999MW1451REMSYN004BUFR
0190065900999992022010113204+49627+006212FM-15+037699999V0201501V00261000301WN000100199+00901+00901999999ADDED124U99999GA1091+000301999GE19AGL   +99999+99999GF109991091999000301999999MA1102401999999MW1441REMMET082METAR ELLX 011320Z 15005KT 130V210 0100 R24/0200V0325N FG VV001 09/09 Q1024 NOSIG=
0190065900999992022010113504+49627+006212FM-15+037699999V0202201V00211000301WN000100199+00901+00901999999ADDED124U99999GA1091+000301999GE19AGL   +99999+99999GF109991091999000301999999MA1102501999999MW1441REMMET082METAR ELLX 011350Z 22004KT 180V250 0100 R24/0300V0450U FG VV001 09/09 Q1025 NOSIG=
0131065900999992022010114004+49633+006233FM-12+036799999V0202101N0020199999999000100199+00901+00891102561ADDAY141011AY241011GA1999+000301999GE19AGL   +99999+99999GF199999999999000301999999MA1999999098031MD1610221+9999MW1451REMSYN004BUFR
0190065900999992022010114204+49627+006212FM-15+037699999V0202001V00211000301WN000100199+00901+00901999999ADDED124U99999GA1091+000301999GE19AGL   +99999+99999GF109991091999000301999999MA1102501999999MW1441REMMET082METAR ELLX 011420Z 20004KT 170V230 0100 R24/0500V0750N FG VV001 09/09 Q1025 NOSIG=
0190065900999992022010114504+49627+006212FM-15+037699999V0201701V00151000301WN000100199+00901+00901999999ADDED124U99999GA1091+000301999GE19AGL   +99999+99999GF109991091999000301999999MA1102501999999MW1441REMMET082METAR ELLX 011450Z 17003KT 140V210 0100 R24/0375V0500N FG VV001 09/09 Q1025 NOSIG=
0131065900999992022010115004+49633+006233FM-12+036799999V0201801N0020199999999000100199+00901+00901102551ADDAY141011AY241011GA1999+000301999GE19AGL   +99999+99999GF199999999999000301999999MA1999999098031MD1610141+9999MW1451REMSYN004BUFR
0190065900999992022010115204+49627+006212FM-15+037699999V0201801V00211000301WN000100199+00901+00901999999ADDED124U99999GA1091+000301999GE19AGL   +99999+99999GF109991091999000301999999MA1102501999999MW1441REMMET082METAR ELLX 011520Z 18004KT 140V230 0100 R24/0375V0550N FG VV001 09/09 Q1025 NOSIG=
0177065900999992022010115504+49627+006212FM-15+037699999V0209999V00101000301WN000100199+00901+00901999999ADDED124U99999GA1091+000301999GE19AGL   +99999+99999GF109991091999000301999999MA1102501999999MW1441REMMET069METAR ELLX 011550Z VRB02KT 0100 R24/0400N FG VV001 09/09 Q1025 NOSIG=
0131065900999992022010116004+49633+006233FM-12+036799999V0209999N0010199999999000100199+00901+00891102571ADDAY141011AY241011GA1999+000301999GE19AGL   +99999+99999GF199999999999000301999999MA1999999098041MD1510011+9999MW1451REMSYN004BUFR
0177065900999992022010116204+49627+006212FM-15+037699999V0201001N00101000301WN000100199+00901+00901999999ADDED124U99999GA1091+000301999GE19AGL   +99999+99999GF109991091999000301999999MA1102401999999MW1441REMMET069METAR ELLX 011620Z 10002KT 0100 R24/0375N FG VV001 09/09 Q1024 NOSIG=
0178065900999992022010116504+49627+006212FM-15+037699999V0209999V00151000301CN000100199+00801+00801999999ADDED124U99999GA1071+000301999GE19AGL   +99999+99999GF199999071999000301999999MA1102401999999MW1441REMMET070METAR ELLX 011650Z VRB03KT 0100 R24/0250N FG BKN001 08/08 Q1024 NOSIG=
0131065900999992022010117004+49633+006233FM-12+036799999V0200401N0020199999999000100199+00851+00841102541ADDAY141011AY241011GA1999+000301999GE19AGL   +99999+99999GF199999999999000301999999MA1999999098011MD1810021+9999MW1451REMSYN004BUFR
0178065900999992022010117204+49627+006212FM-15+037699999V0200801N00151000301CN000100199+00801+00801999999ADDED124U99999GA1071+000301999GE19AGL   +99999+99999GF199999071999000301999999MA1102401999999MW1441REMMET070METAR ELLX 011720Z 08003KT 0100 R24/0250N FG BKN001 08/08 Q1024 NOSIG=
0185065900999992022010117504+49627+006212FM-15+037699999V0201101V00151000301WN000100199+00801+00801999999ADDED124U99999GA1091+000301999GE19AGL   +99999+99999GF109991091999000301999999MA1102301999999MW1441REMMET077METAR ELLX 011750Z 11003KT 080V150 0100 R24/0250N FG VV001 08/08 Q1023 NOSIG=
0142065900999992022010118004+49633+006233FM-12+036799999V0201001N0020199999999000100199+00821+99999102451ADDAA112999999AY141011AY241011GA1999+000301999GE19AGL   +99999+99999GF199999999999000301999999MA1999999097921MD1810111+9999MW1451REMSYN004BUFR
0185065900999992022010118204+49627+006212FM-15+037699999V0201101V00151000301WN000100199+00801+00801999999ADDED124U99999GA1091+000301999GE19AGL   +99999+99999GF109991091999000301999999MA1102401999999MW1441REMMET077METAR ELLX 011820Z 11003KT 080V140 0100 R24/0350N FG VV001 08/08 Q1024 NOSIG=
0185065900999992022010118504+49627+006212FM-15+037699999V0201501V00151000301WN000200199+00701+00701999999ADDED124U99999GA1091+000301999GE19AGL   +99999+99999GF109991091999000301999999MA1102301999999MW1441REMMET077METAR ELLX 011850Z 15003KT 110V250 0200 R24/0500N FG VV001 07/07 Q1023 NOSIG=
0131065900999992022010119004+49633+006233FM-12+036799999V0209999N0010199999999000200199+00771+00771102481ADDAY141011AY241011GA1999+000301999GE19AGL   +99999+99999GF199999999999000301999999MA1999999097941MD1510101+9999MW1431REMSYN004BUFR
0190065900999992022010119204+49627+006212FM-15+037699999V0202201V00151000301WN000200199+00701+00701999999ADDED124U99999GA1091+000301999GE19AGL   +99999+99999GF109991091999000301999999MA1102301999999MW1441REMMET082METAR ELLX 011920Z 22003KT 190V260 0200 R24/0300V0400N FG VV001 07/07 Q1023 NOSIG=
0182065900999992022010119504+49627+006212FM-15+037699999V0201301N00211000611WN000400199+00701+00701999999ADDED124U99999GA1091+000611999GE19AGL   +99999+99999GF109991091999000611999999MA1102301999999MW1441REMMET074METAR ELLX 011950Z 13004KT 0400 R24/0550V0900N FG VV002 07/07 Q1023 NOSIG=
0067065900999992022010120004+49633+006233FM-12+036799999V0201301N0030199999999000400199+00671+99999102441ADDAY141011AY241011MA1999999097881MD1610131+9999MW1451REMSYN004BUFR
0183065900999992022010120204+49627+006212FM-15+037699999V0209999V001019999999N003000199+00701+00601999999ADDED124U99999GA1041+000301999GE19AGL   +99999+99999GF199999041999000301999999MA1102301999999MW1101REMMET075METAR ELLX 012020Z VRB02KT 3000 R24/0450V0800D BR SCT001 07/06 Q1023 NOSIG=
0135065900999992022010120504+49627+006212FM-15+037699999V0202301V001512200019N002500199+00701+00701999999ADDGF100991999999999999999999MA1102301999999MW1101MW2111REMMET070METAR ELLX 012050Z 23003KT 160V330 2500 BR BCFG NSC 07/07 Q1023 NOSIG=
0131065900999992022010121004+49633+006233FM-12+036799999V0202401N0010106000199002500199+00701+00691102451ADDAY141011AY241011GA1051+060001001GE19AGL   +99999+99999GF105991051999060001999999MA1999999097891MD1810031+9999MW1411REMSYN004BUFR
0107065900999992022010121204+49627+006212FM-15+037699999V0201901N002112200019N006000199+00701+00701999999ADDGF100991999999999999999999MA1102301999999REMMET054METAR ELLX 012120Z 19004KT 6000 NSC 07/07 Q1023 NOSIG=
0183065900999992022010121504+49627+006212FM-15+037699999V0201801N003119999999N004500199+00701+00601999999ADDED124U99999GA1021+000301999GE19AGL   +99999+99999GF199999021999000301999999MA1102301999999MW1101REMMET075METAR ELLX 012150Z 18006KT 4500 R24/0800V1300N BR FEW001 07/06 Q1023 NOSIG=
0131065900999992022010122004+49633+006233FM-12+036799999V0201701N0030199999999004500199+00671+00661102411ADDAY121011AY221011GA1021+003001071GE19AGL   +99999+99999GF105991021999003001999999MA1999999097851MD1610091+9999MW1281REMSYN004BUFR
0191065900999992022010122204+49627+006212FM-15+037699999V0201701V002619999999N004500199+00601+00601999999ADDED124U99999GA1021+000301999GE19AGL   +99999+99999GF199999021999000301999999MA1102201999999MW1101REMMET083METAR ELLX 012220Z 17005KT 140V210 4500 R24/0550V0800D BR FEW001 06/06 Q1022 NOSIG=
0165065900999992022010122504+49627+006212FM-15+037699999V0201901V002619999999N004500199+00701+00701999999ADDGA1021+000301999GE19AGL   +99999+99999GF199999021999000301999999MA1102201999999MW1101REMMET068METAR ELLX 012250Z 19005KT 160V230 4500 BR FEW001 07/07 Q1022 NOSIG=
0131065900999992022010123004+49633+006233FM-12+036799999V0201801N0030199999999004500199+00711+00711102361ADDAY121011AY221011GA1021+000301071GE19AGL   +99999+99999GF105991021999000301999999MA1999999097811MD1810071+9999MW1101REMSYN004BUFR
0187065900999992022010123204+49627+006212FM-15+037699999V0201901N002619999999N000500199+00701+00701999999ADDED124U99999GA1041+000301999GE19AGL   +99999+99999GF199999041999000301999999MA1102201999999MW1441REMMET079METAR COR ELLX 012320Z 19005KT 0500 R24/0600V0800N FG SCT001 07/07 Q1022 NOSIG=
0178065900999992022010123504+49627+006212FM-15+037699999V0201701N002619999999N001500199+00601+00601999999ADDED124U99999GA1021+000301999GE19AGL   +99999+99999GF199999021999000301999999MA1102201999999MW1101REMMET070METAR ELLX 012350Z 17005KT 1500 R24/0750D BR FEW001 06/06 Q1022 NOSIG=
0142065900999992022010200004+49633+006233FM-12+036799999V0201701N0030122000199001500199+00661+00661102321ADDAA106999999AY141011AY241011GA1011+000301071GE19AGL   +99999+99999GF103991011999000301999999MA1999999097761MD1810131+9999MW1281REMSYN004BUFR
0144065900999992022010200204+49627+006212FM-15+037699999V0201901V002119999999N000900199+00605+00605999999ADDAW1335MA1102105999999REMMET092METAR ELLX 020020Z AUTO 19004KT 160V240 0900 0400// R24/0600V1500U FG NCD 06/06 Q1021 NOSIG=EQDD01      0ADE735
0121065900999992022010200504+49627+006212FM-15+037699999V0202001N002612200019N002000199+00601+00601999999ADDAW1101GF100991999999999999999999MA1102101999999REMMET062METAR ELLX 020050Z AUTO 20005KT 2000 BR NCD 06/06 Q1021 NOSIG=
0131065900999992022010201004+49633+006233FM-12+036799999V0201901N0020105100199004800199+00571+99999102291ADDAW1201AY131011AY231011GA1051+051001999GE19AGL   +99999+99999GF105991051999051001999999MA1999999097721MD1710131+9999REMSYN004BUFR
0145065900999992022010201204+49627+006212FM-15+037699999V0202301V002112200019N999999999+00501+00501999999ADDED124U99999GF100991999999999999999999MA1102101999999REMMET081METAR ELLX 020120Z AUTO 23004KT 190V260 //// R24/P2000N // NCD 05/05 Q1021 NOSIG=
0142065900999992022010201504+49627+006212FM-15+037699999V0201601N001512200019N999999999+00501+00501999999ADDED124U99999GF100991999999999999999999MA1102101999999REMMET078METAR ELLX 020150Z AUTO 16003KT //// R24/1100VP2000D // NCD 05/05 Q1021 NOSIG=
0131065900999992022010202004+49633+006233FM-12+036799999V0201801N0020104800199000300199+00471+00471102271ADDAW1341AY131011AY211011GA1061+048001999GE19AGL   +99999+99999GF107991061999048001999999MA1999999097681MD1610131+9999REMSYN004BUFR
0129065900999992022010202204+49627+006212FM-15+037699999V0201601V002112200019N002000199+00501+00501999999ADDAW1101GF100991999999999999999999MA1102101999999REMMET070METAR ELLX 020220Z AUTO 16004KT 130V190 2000 BR NCD 05/05 Q1021 NOSIG=
0115065900999992022010202504+49627+006212FM-15+037699999V0201801V002112200019N007000199+00501+00501999999ADDGF100991999999999999999999MA1102001999999REMMET062METAR ELLX 020250Z 18004KT 150V210 7000 NSC 05/05 Q1020 NOSIG=
0131065900999992022010203004+49633+006233FM-12+036799999V0201701N00301042001C9007000199+00461+00461102201ADDAY141011AY241011GA1071+042001031GE19AGL   +99999+99999GF107991071999042001999999MA1999999097621MD1810141+9999MW1021REMSYN004BUFR
0115065900999992022010203204+49627+006212FM-15+037699999V0201901V002112200019N008000199+00501+00501999999ADDGF100991999999999999999999MA1102001999999REMMET062METAR ELLX 020320Z 19004KT 150V210 8000 NSC 05/05 Q1020 NOSIG=
0078065900999992022010203504+49627+006212FM-15+037699999V0201601N002119999999Y009900599+00501+00501999999ADDMA1102001999999REMMET051METAR ELLX 020350Z 16004KT CAVOK 05/05 Q1020 NOSIG=
0225065900999992022010204004+49617+006217FM-12+037699999V0201601N00201045001CN015000199+00441+00441102131ADDGA1071+045001031GA2999+999999001GE19AGL   +99999+99999GF107991071999045001999999MA1999999097551MD1810171+9999OD139900401999OD259900301999REMSYN07606590 42965 71602 10044 20044 39755 40213 58017 87031 333 87365 91104 91203=
0086065900999992022010204204+49627+006212FM-15+037699999V0202001V002119999999Y009900599+00501+00501999999ADDMA1102001999999REMMET059METAR ELLX 020420Z 20004KT 160V220 CAVOK 05/05 Q1020 NOSIG=
0078065900999992022010204504+49627+006212FM-15+037699999V0201701N002619999999Y009900599+00501+00501999999ADDMA1101901999999REMMET051METAR ELLX 020450Z 17005KT CAVOK 05/05 Q1019 NOSIG=
0225065900999992022010205004+49617+006217FM-12+037699999V0201701N00301033001CN020000199+00471+00471102101ADDGA1071+033001031GA2999+999999001GE19AGL   +99999+99999GF107991071999033001999999MA1999999097521MD1610161+9999OD139900401999OD259900301999REMSYN07606590 42970 71703 10047 20047 39752 40210 56016 87031 333 87361 91104 91203=
0086065900999992022010205204+49627+006212FM-15+037699999V0201701V002619999999Y009900599+00501+00501999999ADDMA1101901999999REMMET059METAR ELLX 020520Z 17005KT 130V200 CAVOK 05/05 Q1019 NOSIG=
0086065900999992022010205504+49627+006212FM-15+037699999V0201801V002619999999Y009900599+00501+00501999999ADDMA1101901999999REMMET059METAR ELLX 020550Z 18005KT 140V220 CAVOK 05/05 Q1019 NOSIG=
0251065900999992022010206004+49617+006217FM-12+037699999V0201801N00201042001CN020000199+00471+00471102041ADDAA112000091GA1071+042001031GE19AGL   +99999+99999GF108991071999042001999999KA1240N+00411MA1999999097461MD1810161+9999OD139900501999OD259900301999REMSYN09406590 12970 81802 10047 20047 39746 40204 58016 60002 8703/ 333 20041 32003 87364 91105 91203=
0078065900999992022010206204+49627+006212FM-15+037699999V0202001N004119999999Y009900599+00501+00501999999ADDMA1101901999999REMMET051METAR ELLX 020620Z 20008KT CAVOK 05/05 Q1019 NOSIG=
0078065900999992022010206504+49627+006212FM-15+037699999V0201801N003119999999Y009900599+00501+00501999999ADDMA1101801999999REMMET051METAR ELLX 020650Z 18006KT CAVOK 05/05 Q1018 NOSIG=
0209065900999992022010207004+49617+006217FM-12+037699999V0201901N00301030001CN020000199+00461+00451102011ADDGA1071+030001031GE19AGL   +99999+99999GF108991071999030001999999MA1999999097431MD1610121+9999OD139900601999OD259900401999REMSYN07606590 42970 81903 10046 20045 39743 40201 56012 8703/ 333 87360 91106 91204=
0078065900999992022010207204+49627+006212FM-15+037699999V0201701N003119999999Y009900599+00501+00401999999ADDMA1101801999999REMMET051METAR ELLX 020720Z 17006KT CAVOK 05/04 Q1018 NOSIG=
0078065900999992022010207504+49627+006212FM-15+037699999V0201701N004119999999Y009900599+00501+00501999999ADDMA1101701999999REMMET051METAR ELLX 020750Z 17008KT CAVOK 05/05 Q1017 NOSIG=
0131065900999992022010208004+49633+006233FM-12+036799999V0201701N00401027001C9020000199+00471+00461101911ADDAY101011AY201011GA1071+027001031GE19AGL   +99999+99999GF108991071999027001999999MA1999999097341MD1810181+9999MW1001REMSYN004BUFR
0078065900999992022010208204+49627+006212FM-15+037699999V0201901N005719999999Y009900599+00501+00501999999ADDMA1101801999999REMMET051METAR ELLX 020820Z 19011KT CAVOK 05/05 Q1018 NOSIG=
0086065900999992022010208504+49627+006212FM-15+037699999V0201701V004619999999Y009900599+00501+00501999999ADDMA1101801999999REMMET059METAR ELLX 020850Z 17009KT 140V200 CAVOK 05/05 Q1018 NOSIG=
0131065900999992022010209004+49633+006233FM-12+036799999V0201801N00401015001C9020000199+00501+00461101901ADDAY101011AY201011GA1051+015001061GE19AGL   +99999+99999GF108991051999015001999999MA1999999097331MD1710111+9999MW1001REMSYN004BUFR
0078065900999992022010209204+49627+006212FM-15+037699999V0201601N004119999999Y009900599+00501+00501999999ADDMA1101701999999REMMET051METAR ELLX 020920Z 16008KT CAVOK 05/05 Q1017 NOSIG=
0078065900999992022010209504+49627+006212FM-15+037699999V0201801N003619999999Y009900599+00501+00501999999ADDMA1101701999999REMMET051METAR ELLX 020950Z 18007KT CAVOK 05/05 Q1017 NOSIG=
0131065900999992022010210004+49633+006233FM-12+036799999V0201801N00401021001C9025000199+00521+00441101871ADDAY101011AY201011GA1071+021001061GE19AGL   +99999+99999GF108991071999021001999999MA1999999097311MD1610121+9999MW1001REMSYN004BUFR
0078065900999992022010210204+49627+006212FM-15+037699999V0201901N003619999999Y009900599+00601+00501999999ADDMA1101701999999REMMET051METAR ELLX 021020Z 19007KT CAVOK 06/05 Q1017 NOSIG=
0148065900999992022010210504+49627+006212FM-15+037699999V0202001N004119999999N009999199+00701+00501999999ADDGA1021+009141999GE19AGL   +99999+99999GF199999021999009141999999MA1101701999999REMMET057METAR ELLX 021050Z 20008KT 9999 FEW030 07/05 Q1017 NOSIG=
0131065900999992022010211004+49633+006233FM-12+036799999V0202001N0050199999999030000199+00711+00531101871ADDAY101011AY201011GA1011+009001061GE19AGL   +99999+99999GF106991011999009001999999MA1999999097341MD1510001+9999MW1001REMSYN004BUFR
0148065900999992022010211204+49627+006212FM-15+037699999V0202001N00411006101CN009999199+00701+00501999999ADDGA1071+006101999GE19AGL   +99999+99999GF199999071999006101999999MA1101701999999REMMET057METAR ELLX 021120Z 20008KT 9999 BKN020 07/05 Q1017 NOSIG=
0148065900999992022010211504+49627+006212FM-15+037699999V0202101N00361006101CN009999199+00801+00601999999ADDGA1071+006101999GE19AGL   +99999+99999GF199999071999006101999999MA1101701999999REMMET057METAR ELLX 021150Z 21007KT 9999 BKN020 08/06 Q1017 NOSIG=
0142065900999992022010212004+49633+006233FM-12+036799999V0202101N00401006001C9030000199+00801+00581101791ADDAA106999999AY101011AY201011GA1071+006001061GE19AGL   +99999+99999GF107991071999006001999999MA1999999097281MD1810051+9999MW1001REMSYN004BUFR
0152065900999992022010212204+49627+006212FM-15+037699999V0202001N00411005491CN009999199+00901+00601999999ADDGA1071+005491999GE19AGL   +99999+99999GF199999071999005491999999MA1101701999999REMMET061METAR COR ELLX 021220Z 20008KT 9999 BKN018 09/06 Q1017 NOSIG=
0148065900999992022010212504+49627+006212FM-15+037699999V0202101N00311005491CN009999199+00901+00701999999ADDGA1071+005491999GE19AGL   +99999+99999GF199999071999005491999999MA1101701999999REMMET057METAR ELLX 021250Z 21006KT 9999 BKN018 09/07 Q1017 NOSIG=
0131065900999992022010213004+49633+006233FM-12+036799999V0202101N00301005401C9030000199+00921+00631101761ADDAY101011AY201011GA1071+005401061GE19AGL   +99999+99999GF107991071999005401999999MA1999999097271MD1810041+9999MW1001REMSYN004BUFR
0148065900999992022010213204+49627+006212FM-15+037699999V0202301N00511005491CN009999199+01001+00701999999ADDGA1071+005491999GE19AGL   +99999+99999GF199999071999005491999999MA1101701999999REMMET057METAR ELLX 021320Z 23010KT 9999 BKN018 10/07 Q1017 NOSIG=
0171065900999992022010213504+49627+006212FM-15+037699999V0202301N00571005491CN009999199+01101+00701999999ADDGA1071+005491999GA2071+009141999GE19AGL   +99999+99999GF199999071999005491999999MA1101701999999REMMET064METAR ELLX 021350Z 23011KT 9999 BKN018 BKN030 11/07 Q1017 NOSIG=
0131065900999992022010214004+49633+006233FM-12+036799999V0202301N00601005401C9030000199+01051+00771101741ADDAY101011AY201011GA1051+005401061GE19AGL   +99999+99999GF107991051999005401999999MA1999999097271MD1610071+9999MW1001REMSYN004BUFR
0148065900999992022010214204+49627+006212FM-15+037699999V0202301N00621005491CN009999199+01001+00701999999ADDGA1071+005491999GE19AGL   +99999+99999GF199999071999005491999999MA1101701999999REMMET057METAR ELLX 021420Z 23012KT 9999 BKN018 10/07 Q1017 NOSIG=
0171065900999992022010214504+49627+006212FM-15+037699999V0202201N006210112819N009999199+01101+00801999999ADDGA1041+005181999GA2071+011281999GE19AGL   +99999+99999GF199999041999005181999999MA1101701999999REMMET064METAR ELLX 021450Z 22012KT 9999 SCT017 BKN037 11/08 Q1017 NOSIG=
0131065900999992022010215004+49633+006233FM-12+036799999V0202201N0060100510199030000199+01051+00771101751ADDAY101011AY201011GA1041+005101061GE19AGL   +99999+99999GF107991041999005101999999MA1999999097281MD1510001+9999MW1001REMSYN004BUFR
0148065900999992022010215204+49627+006212FM-15+037699999V0202201N00571004271CN009999199+01001+00801999999ADDGA1071+004271999GE19AGL   +99999+99999GF199999071999004271999999MA1101701999999REMMET057METAR ELLX 021520Z 22011KT 9999 BKN014 10/08 Q1017 NOSIG=
0148065900999992022010215504+49627+006212FM-15+037699999V0202201N00671003961CN009999199+01001+00801999999ADDGA1071+003961999GE19AGL   +99999+99999GF199999071999003961999999MA1101701999999REMMET057METAR ELLX 021550Z 22013KT 9999 BKN013 10/08 Q1017 NOSIG=
0131065900999992022010216004+49633+006233FM-12+036799999V0202201N00601003901C9030000199+01021+00801101781ADDAY101011AY201011GA1071+003901061GE19AGL   +99999+99999GF107991071999003901999999MA1999999097311MD1310041+9999MW1001REMSYN004BUFR
0148065900999992022010216204+49627+006212FM-15+037699999V0202201N00671003961CN009999199+01001+00801999999ADDGA1071+003961999GE19AGL   +99999+99999GF199999071999003961999999MA1101701999999REMMET057METAR ELLX 021620Z 22013KT 9999 BKN013 10/08 Q1017 NOSIG=
0171065900999992022010216504+49627+006212FM-15+037699999V0202201N00721004271CN009999199+01001+00801999999ADDGA1071+004271999GA2071+005491999GE19AGL   +99999+99999GF199999071999004271999999MA1101701999999REMMET064METAR ELLX 021650Z 22014KT 9999 BKN014 BKN018 10/08 Q1017 NOSIG=
0131065900999992022010217004+49633+006233FM-12+036799999V0202201N00801004201C9030000199+01021+00801101751ADDAY101011AY201011GA1051+004201061GE19AGL   +99999+99999GF107991051999004201999999MA1999999097281MD1010011+9999MW1001REMSYN004BUFR
0148065900999992022010217204+49627+006212FM-15+037699999V0202201N00771004271CN009999199+01001+00801999999ADDGA1071+004271999GE19AGL   +99999+99999GF199999071999004271999999MA1101701999999REMMET057METAR ELLX 021720Z 22015KT 9999 BKN014 10/08 Q1017 NOSIG=
0171065900999992022010217504+49627+006212FM-15+037699999V0202201N00771004271CN009999199+01001+00801999999ADDGA1071+004271999GA2071+005181999GE19AGL   +99999+99999GF199999071999004271999999MA1101601999999REMMET064METAR ELLX 021750Z 22015KT 9999 BKN014 BKN017 10/08 Q1016 NOSIG=
0142065900999992022010218004+49633+006233FM-12+036799999V0202201N00701004201C9030000199+01021+00781101711ADDAA112999999AY101011AY201011GA1051+004201061GE19AGL   +99999+99999GF108991051999004201999999MA1999999097241MD1810041+9999MW1001REMSYN004BUFR
0182065900999992022010218204+49627+006212FM-15+037699999V0202201N00821004571CN009999199+01001+00801999999ADDGA1071+004571999GA2071+005491999GE19AGL   +99999+99999GF199999071999004571999999MA1101601999999REMMET075METAR ELLX 021820Z 22016KT 9999 BKN015 BKN018 10/08 Q1016 TEMPO 22020G30KT=
0182065900999992022010218504+49627+006212FM-15+037699999V0202201N007710054919N009999199+01001+00801999999ADDGA1041+004571999GA2071+005491999GE19AGL   +99999+99999GF199999041999004571999999MA1101601999999REMMET075METAR ELLX 021850Z 22015KT 9999 SCT015 BKN018 10/08 Q1016 TEMPO 22020G30KT=
0131065900999992022010219004+49633+006233FM-12+036799999V0202201N0080100450199030000199+01051+00771101671ADDAY101011AY201011GA1041+004501061GE19AGL   +99999+99999GF108991041999004501999999MA1999999097201MD1810111+9999MW1001REMSYN004BUFR
0182065900999992022010219204+49627+006212FM-15+037699999V0202201N008210054919N009999199+01101+00801999999ADDGA1021+004571999GA2071+005491999GE19AGL   +99999+99999GF199999021999004571999999MA1101601999999REMMET075METAR ELLX 021920Z 22016KT 9999 FEW015 BKN018 11/08 Q1016 TEMPO 22020G30KT=
0159065900999992022010219504+49627+006212FM-15+037699999V0202201N00931004881CN009999199+01101+00801999999ADDGA1071+004881999GE19AGL   +99999+99999GF199999071999004881999999MA1101601999999REMMET068METAR ELLX 021950Z 22018KT 9999 BKN016 11/08 Q1016 TEMPO 22020G30KT=
0131065900999992022010220004+49633+006233FM-12+036799999V0202201N00901004801C9030000199+01051+00781101631ADDAY101011AY201011GA1071+004801061GE19AGL   +99999+99999GF108991071999004801999999MA1999999097171MD1610111+9999MW1001REMSYN004BUFR
0171065900999992022010220204+49627+006212FM-15+037699999V0202301N009310070119N009999199+01101+00801999999ADDGA1041+004881999GA2071+007011999GE19AGL   +99999+99999GF199999041999004881999999MA1101501999999REMMET064METAR ELLX 022020Z 23018KT 9999 SCT016 BKN023 11/08 Q1015 NOSIG=
0182065900999992022010220504+49627+006212FM-15+037699999V0202201N010310064019N009999199+01001+00801999999ADDGA1021+003961999GA2071+006401999GE19AGL   +99999+99999GF199999021999003961999999MA1101501999999OC101651REMMET067METAR ELLX 022050Z 22020G32KT 9999 FEW013 BKN021 10/08 Q1015 NOSIG=
0131065900999992022010221004+49633+006233FM-12+036799999V0202201N0100100390199030000199+01021+00771101581ADDAY121011AY221011GA1021+003901081GE19AGL   +99999+99999GF107991021999003901999999MA1999999097121MD1810121+9999MW1251REMSYN004BUFR
0182065900999992022010221204+49627+006212FM-15+037699999V0202301N009810067119N009999199+01101+00801999999ADDGA1041+004571999GA2071+006711999GE19AGL   +99999+99999GF199999041999004571999999MA1101501999999OC101701REMMET067METAR ELLX 022120Z 23019G33KT 9999 SCT015 BKN022 11/08 Q1015 NOSIG=
0193065900999992022010221504+49627+006212FM-15+037699999V0202301N011310064019N009999199+01101+00801999999ADDGA1041+004881999GA2071+006401999GE19AGL   +99999+99999GF199999041999004881999999MA1101501999999OC101701REMMET078METAR ELLX 022150Z 23022G33KT 9999 SCT016 BKN021 11/08 Q1015 TEMPO 23020G35KT=
0131065900999992022010222004+49633+006233FM-12+036799999V0202301N0110100480199025000199+01061+00771101551ADDAY101011AY201011GA1021+004801081GE19AGL   +99999+99999GF107991021999004801999999MA1999999097091MD1710111+9999MW1001REMSYN004BUFR
0197065900999992022010222204+49627+006212FM-15+037699999V0202401N010810085319N009999199+01101+00701999999ADDGA1021+006101999GA2071+008531999GE19AGL   +99999+99999GF199999021999006101999999MA1101501999999OC101651REMMET082METAR COR ELLX 022220Z 24021G32KT 9999 FEW020 BKN028 11/07 Q1015 TEMPO 23020G35KT=
0197065900999992022010222504+49627+006212FM-15+037699999V0202901N007710064019N009999199+00901+00701999999ADDGA1021+003661081GA2071+006401999GE19AGL   +99999+99999GF199999021999003661999999MA1101601999999MW1801REMMET084METAR ELLX 022250Z 29015KT 9999 -SHRA FEW012TCU BKN021 09/07 Q1016 TEMPO 23020G35KT=
0131065900999992022010223004+49633+006233FM-12+036799999V0202701N0090100360199024000199+00921+00681101701ADDAY121011AY221011GA1021+003601081GE19AGL   +99999+99999GF108991021999003601999999MA1999999097211MD1310041+9999MW1801REMSYN004BUFR
0196065900999992022010223204+49627+006212FM-15+037699999V0202701N010310091419N003000199+00701+00601999999ADDGA1041+003351081GA2071+009141999GE19AGL   +99999+99999GF199999041999003351999999MA1101701999999MW1811REMMET083METAR ELLX 022320Z 27020KT 3000 SHRA SCT011TCU BKN030 07/06 Q1017 TEMPO 23020G35KT=
0175065900999992022010223504+49627+006212FM-15+037699999V0202601N006710064019N009999199+00801+00701999999ADDGA1021+004881999GA2071+006401999GE19AGL   +99999+99999GF199999021999004881999999MA1101601999999REMMET068METAR ELLX 022350Z 26013KT 9999 FEW016 BKN021 08/07 Q1016 RE/ NOSIG=
0142065900999992022010300004+49633+006233FM-12+036799999V0202601N0070100480199030000199+00821+00671101741ADDAA106006031AY181011AY221011GA1011+004801081GE19AGL   +99999+99999GF107991011999004801999999MA1999999097241MD1310121+9999MW1251REMSYN004BUFR
0208065900999992022010300204+49627+006212FM-15+037699999V0202601N00821007921CN009999199+00901+00701999999ADDGA1021+006101999GA2041+007921999GA3071+011281999GE19AGL   +99999+99999GF199999021999006101999999MA1101601999999REMMET085METAR ELLX 030020Z AUTO 26016KT 9999 FEW020/// SCT026/// BKN037/// 09/07 Q1016 NOSIG=
0208065900999992022010300504+49627+006212FM-15+037699999V0202601N006710045719N009999199+00801+00701999999ADDGA1021+003661999GA2071+004571999GA3071+005181999GE19AGL   +99999+99999GF199999021999003661999999MA1101701999999REMMET085METAR ELLX 030050Z AUTO 26013KT 9999 FEW012/// BKN015/// BKN017/// 08/07 Q1017 NOSIG=
0131065900999992022010301004+49633+006233FM-12+036799999V0202501N0070199999999028000199+00851+00691101771ADDAW1001AY161011AY201011GA1021+003601999GE19AGL   +99999+99999GF107991021999003601999999MA1999999097271MD1110181+9999REMSYN004BUFR
0208065900999992022010301204+49627+006212FM-15+037699999V0202501N006210039619N009999199+00901+00701999999ADDGA1021+003351999GA2071+003961999GA3071+004881999GE19AGL   +99999+99999GF199999021999003351999999MA1101701999999REMMET085METAR ELLX 030120Z AUTO 25012KT 9999 FEW011/// BKN013/// BKN016/// 09/07 Q1017 NOSIG=
0220065900999992022010301504+49627+006212FM-15+037699999V0202501N008810061019N009999199+00901+00701999999ADDAW1811GA1021+004881999GA2071+006101999GA3071+007011999GE19AGL   +99999+99999GF199999021999004881999999MA1101701999999REMMET091METAR ELLX 030150Z AUTO 25017KT 9999 -SHRA FEW016/// BKN020/// BKN023/// 09/07 Q1017 NOSIG=
0131065900999992022010302004+49633+006233FM-12+036799999V0202401N0080199999999021000199+00871+00691101771ADDAY101011AY201011GA1031+004801999GE19AGL   +99999+99999GF108991031999004801999999MA1999999097271MD1110061+9999MW1001REMSYN004BUFR
0208065900999992022010302204+49627+006212FM-15+037699999V0202501N00721007011CN009999199+00901+00601999999ADDGA1041+006101999GA2041+007011999GA3071+008841999GE19AGL   +99999+99999GF199999041999006101999999MA1101701999999REMMET085METAR ELLX 030220Z AUTO 25014KT 9999 SCT020/// SCT023/// BKN029/// 09/06 Q1017 NOSIG=
0175065900999992022010302504+49627+006212FM-15+037699999V0202601N008210091419N009999199+00801+00601999999ADDGA1021+006401999GA2071+009141999GE19AGL   +99999+99999GF199999021999006401999999MA1101701999999REMMET068METAR COR ELLX 030250Z 26016KT 9999 FEW021 BKN030 08/06 Q1017 NOSIG=
0131065900999992022010303004+49633+006233FM-12+036799999V0202501N0080100630199007000199+00861+00621101781ADDAY101011AY201011GA1011+006301081GE19AGL   +99999+99999GF107991011999006301999999MA1999999097281MD1110041+9999MW1001REMSYN004BUFR
0220065900999992022010303204+49627+006212FM-15+037699999V0202501N00571005491CN002000199+00801+00701999999ADDAW1811GA1021+004571999GA2041+005491999GA3071+006401999GE19AGL   +99999+99999GF199999021999004571999999MA1101701999999REMMET091METAR ELLX 030320Z AUTO 25011KT 2000 -SHRA FEW015/// SCT018/// BKN021/// 08/07 Q1017 NOSIG=
0183065900999992022010303504+49627+006212FM-15+037699999V0202601N007710054919N008000199+00801+00701999999ADDGA1021+003351999GA2071+005491999GE19AGL   +99999+99999GF199999021999003351999999MA1101701999999MW1801REMMET070METAR ELLX 030350Z 26015KT 8000 -SHRA FEW011 BKN018 08/07 Q1017 NOSIG=
0259065900999992022010304004+49617+006217FM-12+037699999V0202501N008010054019N008000199+00831+00711101781ADDAY121021AY221021GA1021+003301081GA2071+005401061GE19AGL   +99999+99999GF107991021999003301999999MA1999999097281MD1210011+9999MW1251OD139901201999OD259900801999REMSYN08806590 41458 72508 10083 20071 39728 40178 52001 72522 878// 333 82811 87618 91112 91208=
0187065900999992022010304204+49627+006212FM-15+037699999V0202501N008810048819N009999199+00801+00701999999ADDGA1021+004271999GA2071+004881999GE19AGL   +99999+99999GF199999021999004271999999MA1101701999999MW1801REMMET074METAR COR ELLX 030420Z 25017KT 9999 -SHRA FEW014 BKN016 08/07 Q1017 NOSIG=
0183065900999992022010304504+49627+006212FM-15+037699999V0202501N008210054919N009999199+00801+00701999999ADDGA1021+003351999GA2071+005491999GE19AGL   +99999+99999GF199999021999003351999999MA1101701999999MW1801REMMET070METAR ELLX 030450Z 25016KT 9999 -SHRA FEW011 BKN018 08/07 Q1017 NOSIG=
0131065900999992022010305004+49633+006233FM-12+036799999V0202501N0080100330199012000199+00821+00661101741ADDAY181011AY221011GA1021+003301081GE19AGL   +99999+99999GF107991021999003301999999MA1999999097241MD1810031+9999MW1801REMSYN004BUFR
0171065900999992022010305204+49627+006212FM-15+037699999V0202501N008210061019N009999199+00801+00701999999ADDGA1021+004271999GA2071+006101999GE19AGL   +99999+99999GF199999021999004271999999MA1101701999999REMMET064METAR ELLX 030520Z 25016KT 9999 FEW014 BKN020 08/07 Q1017 NOSIG=
0183065900999992022010305504+49627+006212FM-15+037699999V0202401N006210067119N009999199+00801+00701999999ADDGA1021+004271999GA2071+006711999GE19AGL   +99999+99999GF199999021999004271999999MA1101601999999MW1801REMMET070METAR ELLX 030550Z 24012KT 9999 -SHRA FEW014 BKN022 08/07 Q1016 NOSIG=
0167065900999992022010306004+49633+006233FM-12+036799999V0202401N0080100420199015000199+00821+00651101741ADDAA112008031AY121011AY221011GA1021+004201081GE19AGL   +99999+99999GF107991021999004201999999IA2999+00709KA1120N+00701MA1999999097241MD1610051+9999MW1801REMSYN004BUFR
0148065900999992022010306204+49627+006212FM-15+037699999V0202301N00511003661CN009999199+00801+00701999999ADDGA1071+003661999GE19AGL   +99999+99999GF199999071999003661999999MA1101601999999REMMET057METAR ELLX 030620Z 23010KT 9999 BKN012 08/07 Q1016 NOSIG=
0148065900999992022010306504+49627+006212FM-15+037699999V0202401N00621003661CN009999199+00801+00701999999ADDGA1071+003661999GE19AGL   +99999+99999GF199999071999003661999999MA1101601999999REMMET057METAR ELLX 030650Z 24012KT 9999 BKN012 08/07 Q1016 NOSIG=
0131065900999992022010307004+49633+006233FM-12+036799999V0202401N00601003601C9015000199+00821+00681101701ADDAY121011AY221011GA1051+003601081GE19AGL   +99999+99999GF107991051999003601999999MA1999999097201MD1710081+9999MW1251REMSYN004BUFR
0148065900999992022010307204+49627+006212FM-15+037699999V0202301N00671003661CN009999199+00901+00701999999ADDGA1071+003661999GE19AGL   +99999+99999GF199999071999003661999999MA1101601999999REMMET057METAR ELLX 030720Z 23013KT 9999 BKN012 09/07 Q1016 NOSIG=
0171065900999992022010307504+49627+006212FM-15+037699999V0202301N006710137219N009999199+00901+00601999999ADDGA1041+003661999GA2071+013721999GE19AGL   +99999+99999GF199999041999003661999999MA1101601999999REMMET064METAR ELLX 030750Z 23013KT 9999 SCT012 BKN045 09/06 Q1016 NOSIG=
0131065900999992022010308004+49633+006233FM-12+036799999V0202301N0070100360199015000199+00851+00651101691ADDAY101011AY201011GA1041+003601081GE19AGL   +99999+99999GF108991041999003601999999MA1999999097191MD1810051+9999MW1001REMSYN004BUFR
0171065900999992022010308204+49627+006212FM-15+037699999V0202301N006710137219N009999199+00901+00701999999ADDGA1041+004571999GA2071+013721999GE19AGL   +99999+99999GF199999041999004571999999MA1101601999999REMMET064METAR ELLX 030820Z 23013KT 9999 SCT015 BKN045 09/07 Q1016 NOSIG=
0148065900999992022010308504+49627+006212FM-15+037699999V0202301N00721004571CN009999199+00901+00701999999ADDGA1071+004571999GE19AGL   +99999+99999GF199999071999004571999999MA1101601999999REMMET057METAR ELLX 030850Z 23014KT 9999 BKN015 09/07 Q1016 NOSIG=
0131065900999992022010309004+49633+006233FM-12+036799999V0202301N00801004501C9015000199+00871+00651101681ADDAY181011AY221011GA1051+004501081GE19AGL   +99999+99999GF108991051999004501999999MA1999999097191MD1610051+9999MW1021REMSYN004BUFR
0148065900999992022010309204+49627+006212FM-15+037699999V0202301N00771004571CN009999199+00901+00701999999ADDGA1071+004571999GE19AGL   +99999+99999GF199999071999004571999999MA1101601999999REMMET057METAR ELLX 030920Z 23015KT 9999 BKN015 09/07 Q1016 NOSIG=
0148065900999992022010309504+49627+006212FM-15+037699999V0202301N00771004571CN009999199+00901+00701999999ADDGA1071+004571999GE19AGL   +99999+99999GF199999071999004571999999MA1101601999999REMMET057METAR ELLX 030950Z 23015KT 9999 BKN015 09/07 Q1016 NOSIG=
0131065900999992022010310004+49633+006233FM-12+036799999V0202401N00801004501C9015000199+00901+00671101681ADDAY101011AY201011GA1051+004501081GE19AGL   +99999+99999GF108991051999004501999999MA1999999097191MD1610011+9999MW1001REMSYN004BUFR
0148065900999992022010310204+49627+006212FM-15+037699999V0202301N00671003661CN009999199+00901+00701999999ADDGA1071+003661999GE19AGL   +99999+99999GF199999071999003661999999MA1101601999999REMMET057METAR ELLX 031020Z 23013KT 9999 BKN012 09/07 Q1016 NOSIG=
0160065900999992022010310504+49627+006212FM-15+037699999V0202301N00621003661CN009999199+00901+00701999999ADDGA1071+003661999GE19AGL   +99999+99999GF199999071999003661999999MA1101501999999MW1801REMMET063METAR ELLX 031050Z 23012KT 9999 -SHRA BKN012 09/07 Q1015 NOSIG=
0131065900999992022010311004+49633+006233FM-12+036799999V0202401N00701003601C9015000199+00921+00681101661ADDAY101011AY201011GA1051+003601081GE19AGL   +99999+99999GF108991051999003601999999MA1999999097171MD1810021+9999MW1001REMSYN004BUFR
0148065900999992022010311204+49627+006212FM-15+037699999V0202301N00721003961CN009999199+00901+00701999999ADDGA1071+003961999GE19AGL   +99999+99999GF199999071999003961999999MA1101501999999REMMET057METAR ELLX 031120Z 23014KT 9999 BKN013 09/07 Q1015 NOSIG=
0160065900999992022010311504+49627+006212FM-15+037699999V0202301N00721003961CN009999199+00901+00701999999ADDGA1071+003961999GE19AGL   +99999+99999GF199999071999003961999999MA1101501999999MW1801REMMET063METAR ELLX 031150Z 23014KT 9999 -SHRA BKN013 09/07 Q1015 NOSIG=
0142065900999992022010312004+49633+006233FM-12+036799999V0202401N00801003901C9010000199+00921+00671101561ADDAA106000431AY181011AY221011GA1051+003901081GE19AGL   +99999+99999GF108991051999003901999999MA1999999097081MD1810111+9999MW1801REMSYN004BUFR
0148065900999992022010312204+49627+006212FM-15+037699999V0202301N00671003961CN009999199+00901+00701999999ADDGA1071+003961999GE19AGL   +99999+99999GF199999071999003961999999MA1101401999999REMMET057METAR ELLX 031220Z 23013KT 9999 BKN013 09/07 Q1014 NOSIG=
0148065900999992022010312504+49627+006212FM-15+037699999V0202301N00721004271CN009999199+00901+00701999999ADDGA1071+004271999GE19AGL   +99999+99999GF199999071999004271999999MA1101401999999REMMET057METAR ELLX 031250Z 23014KT 9999 BKN014 09/07 Q1014 NOSIG=
0131065900999992022010313004+49633+006233FM-12+036799999V0202201N00701004201C9015000199+00921+00681101461ADDAY121011AY221011GA1051+004201081GE19AGL   +99999+99999GF108991051999004201999999MA1999999096981MD1810211+9999MW1251REMSYN004BUFR
0197065900999992022010313204+49627+006212FM-15+037699999V0202301N008210051819N009999199+00901+00701999999ADDGA1041+004571081GA2071+005181999GE19AGL   +99999+99999GF199999041999004571999999MA1101301999999MW1801REMMET084METAR ELLX 031320Z 23016KT 9999 -SHRA SCT015TCU BKN017 09/07 Q1013 TEMPO 24015G25KT=
0197065900999992022010313504+49627+006212FM-15+037699999V0202301N007210051819N009999199+00901+00701999999ADDGA1021+004571081GA2071+005181999GE19AGL   +99999+99999GF199999021999004571999999MA1101301999999MW1801REMMET084METAR ELLX 031350Z 23014KT 9999 -SHRA FEW015TCU BKN017 09/07 Q1013 TEMPO 24015G25KT=
0131065900999992022010314004+49633+006233FM-12+036799999V0202301N0070100450199012000199+00911+00671101391ADDAY121011AY221011GA1021+004501081GE19AGL   +99999+99999GF108991021999004501999999MA1999999096911MD1610261+9999MW1801REMSYN004BUFR
0223065900999992022010314204+49627+006212FM-15+037699999V0202301V00931005491CN009999199+00901+00601999999ADDGA1021+003961999GA2041+005491999GA3071+015541999GE19AGL   +99999+99999GF199999021999003961999999MA1101301999999MW1611REMMET094METAR ELLX 031420Z 23018KT 190V250 9999 -RA FEW013 SCT018 BKN051 09/06 Q1013 TEMPO 24015G25KT=
0181065900999992022010314504+49627+006212FM-15+037699999V0202201N007710137219N009999199+00901+00701999999ADDGA1021+004881999GA2071+013721999GE19AGL   +99999+99999GF199999021999004881999999MA1101201999999MW1611REMMET068METAR ELLX 031450Z 22015KT 9999 -RA FEW016 BKN045 09/07 Q1012 NOSIG=
0131065900999992022010315004+49633+006233FM-12+036799999V0202201N0080100480199018000199+00901+00641101321ADDAY181011AY221011GA1021+004801081GE19AGL   +99999+99999GF108991021999004801999999MA1999999096841MD1610241+9999MW1601REMSYN004BUFR
0181065900999992022010315204+49627+006212FM-15+037699999V0202201N008210048819N009999199+00901+00701999999ADDGA1021+004271999GA2071+004881999GE19AGL   +99999+99999GF199999021999004271999999MA1101201999999MW1611REMMET068METAR ELLX 031520Z 22016KT 9999 -RA FEW014 BKN016 09/07 Q1012 NOSIG=
0188065900999992022010315504+49627+006212FM-15+037699999V0202301N007210045719N009999199+00901+00701999999ADDGA1041+003961999GA2071+004571999GE19AGL   +99999+99999GF199999041999003961999999MA1101201999999MW1611REMMET075METAR ELLX 031550Z 23014KT 9999 -RA SCT013 BKN015 09/07 Q1012 BECMG BKN012=
0131065900999992022010316004+49633+006233FM-12+036799999V0202301N0070100390199018000199+00901+00691101241ADDAY161011AY221011GA1041+003901081GE19AGL   +99999+99999GF108991041999003901999999MA1999999096771MD1710211+9999MW1611REMSYN004BUFR
0211065900999992022010316204+49627+006212FM-15+037699999V0202201N00721003961CN009999199+00901+00701999999ADDGA1021+003351999GA2041+003961999GA3071+004881999GE19AGL   +99999+99999GF199999021999003351999999MA1101101999999MW1611REMMET082METAR ELLX 031620Z 22014KT 9999 -RA FEW011 SCT013 BKN016 09/07 Q1011 BECMG BKN012=
0181065900999992022010316504+49627+006212FM-15+037699999V0202201N007710039619N009999199+00901+00701999999ADDGA1041+003351999GA2071+003961999GE19AGL   +99999+99999GF199999041999003351999999MA1101101999999MW1611REMMET068METAR ELLX 031650Z 22015KT 9999 -RA SCT011 BKN013 09/07 Q1011 NOSIG=
0131065900999992022010317004+49633+006233FM-12+036799999V0202201N0080100330199018000199+00871+00691101171ADDAY121011AY221011GA1031+003301081GE19AGL   +99999+99999GF108991031999003301999999MA1999999096701MD1710211+9999MW1611REMSYN004BUFR
0192065900999992022010317204+49627+006212FM-15+037699999V0202201N007210039619N008000199+00901+00701999999ADDGA1021+003351999GA2071+003961999GE19AGL   +99999+99999GF199999021999003351999999MA1101001999999MW1631REMMET079METAR ELLX 031720Z 22014KT 8000 RA FEW011 BKN013 09/07 Q1010 TEMPO 4500 BKN006=
0201065900999992022010317504+49627+006212FM-15+037699999V0202201N007210048819N008000199+00801+00701999999ADDGA1021+002741999GA2071+004881999GE19AGL   +99999+99999GF199999021999002741999999MA1101001999999MW1611REMMET088METAR ELLX 031750Z 22014KT 8000 -RA FEW009 BKN016 08/07 Q1010 RERA TEMPO 4500 RA BKN006=
0142065900999992022010318004+49633+006233FM-12+036799999V0202201N0070100270199008000199+00851+00731101091ADDAA112000831AY181011AY221011GA1021+002701081GE19AGL   +99999+99999GF108991021999002701999999MA1999999096621MD1810221+9999MW1631REMSYN004BUFR
0196065900999992022010318204+49627+006212FM-15+037699999V0202201N006710061019N008000199+00801+00701999999ADDGA1041+003961999GA2071+006101999GE19AGL   +99999+99999GF199999041999003961999999MA1100901999999MW1611REMMET083METAR ELLX 031820Z 22013KT 8000 -RA SCT013 BKN020 08/07 Q1009 TEMPO 4500 RA BKN006=
0219065900999992022010318504+49627+006212FM-15+037699999V0202201N00571003051CN008000199+00801+00701999999ADDGA1021+002441999GA2041+003051999GA3071+003661999GE19AGL   +99999+99999GF199999021999002441999999MA1100901999999MW1611REMMET090METAR ELLX 031850Z 22011KT 8000 -RA FEW008 SCT010 BKN012 08/07 Q1009 TEMPO 4500 RA BKN006=
0131065900999992022010319004+49633+006233FM-12+036799999V0202201N0060100240199008000199+00821+00741101011ADDAY121011AY221011GA1021+002401081GE19AGL   +99999+99999GF108991021999002401999999MA1999999096541MD1810231+9999MW1611REMSYN004BUFR
0208065900999992022010319204+49627+006212FM-15+037699999V0202201N00571002441CN008000199+00801+00801999999ADDGA1021+002131999GA2041+002441999GA3071+002741999GE19AGL   +99999+99999GF199999021999002131999999MA1100901999999MW1631REMMET079METAR ELLX 031920Z 22011KT 8000 RA FEW007 SCT008 BKN009 08/08 Q1009 TEMPO 4500=
0213065900999992022010319504+49627+006212FM-15+037699999V0202101N00571001521CN008000199+00801+00801999999ADDGA1021+000911999GA2041+001521999GA3071+002131999GE19AGL   +99999+99999GF199999021999000911999999MA1100801999999MW1631REMMET084METAR ELLX 031950Z 21011KT 8000 RA FEW003 SCT005 BKN007 08/08 Q1008 RERA TEMPO 4500=
0131065900999992022010320004+49633+006233FM-12+036799999V0202101N0060100090199008000199+00811+00771100931ADDAY121011AY221011GA1021+000901081GE19AGL   +99999+99999GF108991021999000901999999MA1999999096461MD1710241+9999MW1631REMSYN004BUFR
0185065900999992022010320204+49627+006212FM-15+037699999V0202001N004110015219N007000199+00801+00801999999ADDGA1041+000911999GA2071+001521999GE19AGL   +99999+99999GF199999041999000911999999MA1100701999999MW1631REMMET072METAR ELLX 032020Z 20008KT 7000 RA SCT003 BKN005 08/08 Q1007 TEMPO 4500=
0162065900999992022010320504+49627+006212FM-15+037699999V0202101N00411000611CN006000199+00801+00801999999ADDGA1071+000611999GE19AGL   +99999+99999GF199999071999000611999999MA1100701999999MW1631REMMET065METAR ELLX 032050Z 21008KT 6000 RA BKN002 08/08 Q1007 TEMPO 4500=
0131065900999992022010321004+49633+006233FM-12+036799999V0202101N00401000601C9007000199+00821+00791100791ADDAY161011AY261011GA1071+000601071GE19AGL   +99999+99999GF108991071999000601999999MA1999999096331MD1810291+9999MW1631REMSYN004BUFR
0181065900999992022010321204+49627+006212FM-15+037699999V0202201N004610009119N007000199+00801+00801999999ADDGA1041+000611999GA2071+000911999GE19AGL   +99999+99999GF199999041999000611999999MA1100601999999MW1611REMMET068METAR ELLX 032120Z 22009KT 7000 -RA SCT002 BKN003 08/08 Q1006 NOSIG=
0181065900999992022010321504+49627+006212FM-15+037699999V0202201N004110012219N008000199+00801+00801999999ADDGA1041+000611999GA2071+001221999GE19AGL   +99999+99999GF199999041999000611999999MA1100601999999MW1611REMMET068METAR ELLX 032150Z 22008KT 8000 -RA SCT002 BKN004 08/08 Q1006 NOSIG=
0131065900999992022010322004+49633+006233FM-12+036799999V0202201N0040100060199008000199+00821+00801100711ADDAY161011AY261011GA1031+000601071GE19AGL   +99999+99999GF108991031999000601999999MA1999999096251MD1710291+9999MW1611REMSYN004BUFR
0157065900999992022010322204+49627+006212FM-15+037699999V0202101N00361000911CN003000199+00801+00801999999ADDGA1071+000911999GE19AGL   +99999+99999GF199999071999000911999999MA1100601999999MW1631REMMET060METAR ELLX 032220Z 21007KT 3000 RA BKN003 08/08 Q1006 NOSIG=
0157065900999992022010322504+49627+006212FM-15+037699999V0202101N00461000911CN005000199+00801+00801999999ADDGA1071+000911999GE19AGL   +99999+99999GF199999071999000911999999MA1100501999999MW1631REMMET060METAR ELLX 032250Z 21009KT 5000 RA BKN003 08/08 Q1005 NOSIG=
0131065900999992022010323004+49633+006233FM-12+036799999V0202001N00401000901C9005000199+00821+00791100601ADDAY161011AY261011GA1071+000901071GE19AGL   +99999+99999GF108991071999000901999999MA1999999096151MD1610311+9999MW1631REMSYN004BUFR
0180065900999992022010323204+49627+006212FM-15+037699999V0202001N004110024419N003000199+00801+00801999999ADDGA1041+000911999GA2071+002441999GE19AGL   +99999+99999GF199999041999000911999999MA1100401999999MW1631REMMET067METAR ELLX 032320Z 20008KT 3000 RA SCT003 BKN008 08/08 Q1004 NOSIG=
0180065900999992022010323504+49627+006212FM-15+037699999V0202201N005110018319N005000199+00901+00801999999ADDGA1041+000911999GA2071+001831999GE19AGL   +99999+99999GF199999041999000911999999MA1100401999999MW1631REMMET067METAR ELLX 032350Z 22010KT 5000 RA SCT003 BKN006 09/08 Q1004 NOSIG=
0142065900999992022010400004+49633+006233FM-12+036799999V0202101N0050100090199005000199+00821+00801100461ADDAA106006031AY161011AY221011GA1031+000901071GE19AGL   +99999+99999GF108991031999000901999999MA1999999096011MD1810321+9999MW1631REMSYN004BUFR
0218065900999992022010400204+49627+006212FM-15+037699999V0202201N007710021319N009999199+00901+00901999999ADDAW1611GA1021+001831999GA2071+002131999GA3081+002741999GE19AGL   +99999+99999GF199999021999001831999999MA1100301999999REMMET089METAR ELLX 040020Z AUTO 22015KT 9999 -RA FEW006/// BKN007/// OVC009/// 09/09 Q1003 NOSIG=
0218065900999992022010400504+49627+006212FM-15+037699999V0202201N007210021319N009999199+00901+00901999999ADDAW1611GA1021+001831999GA2071+002131999GA3071+002741999GE19AGL   +99999+99999GF199999021999001831999999MA1100201999999REMMET089METAR ELLX 040050Z AUTO 22014KT 9999 -RA FEW006/// BKN007/// BKN009/// 09/09 Q1002 NOSIG=
0131065900999992022010401004+49633+006233FM-12+036799999V0202201N0080199999999022000199+00951+00861100301ADDAW1611AY161011AY261011GA1011+001801999GE19AGL   +99999+99999GF108991011999001801999999MA1999999095881MD1810371+9999REMSYN004BUFR
0218065900999992022010401204+49627+006212FM-15+037699999V0202201N007210021319N009999199+00901+00901999999ADDAW1611GA1041+001831999GA2071+002131999GA3081+002741999GE19AGL   +99999+99999GF199999041999001831999999MA1100201999999REMMET089METAR ELLX 040120Z AUTO 22014KT 9999 -RA SCT006/// BKN007/// OVC009/// 09/09 Q1002 NOSIG=
0223065900999992022010401504+49627+006212FM-15+037699999V0202201N007210018319N009999199+00901+00901999999ADDAW1611GA1041+001221999GA2071+001831999GA3081+002131999GE19AGL   +99999+99999GF199999041999001221999999MA1100101999999REMMET094METAR ELLX 040150Z AUTO 22014KT 9999 -RA SCT004/// BKN006/// OVC007/// 09/09 Q1001 RERA NOSIG=
0131065900999992022010402004+49633+006233FM-12+036799999V0202201N0070199999999013000199+00921+00861100191ADDAW1611AY161011AY261011GA1021+001201999GE19AGL   +99999+99999GF108991021999001201999999MA1999999095771MD1610381+9999REMSYN004BUFR
0223065900999992022010402204+49627+006212FM-15+037699999V0202201N006210018319N009999199+00901+00901999999ADDAW1611GA1041+001221999GA2071+001831999GA3081+002441999GE19AGL   +99999+99999GF199999041999001221999999MA1100101999999REMMET094METAR ELLX 040220Z AUTO 22012KT 9999 -RA SCT004/// BKN006/// OVC008/// 09/09 Q1001 RERA NOSIG=
0180065900999992022010402504+49627+006212FM-15+037699999V0202201N006210021319N007000199+00901+00901999999ADDGA1041+001221999GA2071+002131999GE19AGL   +99999+99999GF199999041999001221999999MA1100001999999MW1631REMMET067METAR ELLX 040250Z 22012KT 7000 RA SCT004 BKN007 09/09 Q1000 NOSIG=
0131065900999992022010403004+49633+006233FM-12+036799999V0202201N0060100120199007000199+00901+00861100091ADDAY161011AY261011GA1031+001201071GE19AGL   +99999+99999GF108991031999001201999999MA1999999095671MD1610341+9999MW1631REMSYN004BUFR
0217065900999992022010403204+49627+006212FM-15+037699999V0202201N00621001831CN008000199+00901+00801999999ADDAW1621GA1021+001221999GA2041+001831999GA3071+002131999GE19AGL   +99999+99999GF199999021999001221999999MA1100001999999REMMET088METAR ELLX 040320Z AUTO 22012KT 8000 RA FEW004/// SCT006/// BKN007/// 09/08 Q1000 NOSIG=
0192065900999992022010403504+49627+006212FM-15+037699999V0202201V005710018319N005000199+00901+00801999999ADDGA1021+000911999GA2071+001831999GE19AGL   +99999+99999GF199999021999000911999999MA1099901999999MW1631REMMET079METAR COR ELLX 040350Z 22011KT 180V240 5000 RA FEW003 BKN006 09/08 Q0999 NOSIG=
0131065900999992022010404004+49633+006233FM-12+036799999V0202201N0060199999999007000199+00871+00841099981ADDAW1621AY161011AY261011GA1021+000901999GE19AGL   +99999+99999GF108991021999000901999999MA1999999095561MD1710321+9999REMSYN004BUFR
0131065900999992022010405004+49633+006233FM-12+036799999V0202201N0060100090199003000199+00871+00851099831ADDAY161011AY261011GA1041+000901071GE19AGL   +99999+99999GF108991041999000901999999MA1999999095421MD1810351+9999MW1631REMSYN004BUFR
0180065900999992022010405204+49627+006212FM-15+037699999V0202201N006210024419N008000199+00901+00801999999ADDGA1041+001221999GA2071+002441999GE19AGL   +99999+99999GF199999041999001221999999MA1099701999999MW1631REMMET067METAR ELLX 040520Z 22012KT 8000 RA SCT004 BKN008 09/08 Q0997 NOSIG=
0195065900999992022010405504+49627+006212FM-15+037699999V0203101V003610021319N004000199+00701+00701999999ADDGA1041+000611999GA2071+002131999GE19AGL   +99999+99999GF199999041999000611999999MA1099701999999MW1631REMMET082METAR ELLX 040550Z 31007KT 230V360 4000 RA SCT002 BKN007 07/07 Q0997 TEMPO BKN004=
0167065900999992022010406004+49633+006233FM-12+036799999V0202601N0060100060199004000199+00901+00861099781ADDAA112018031AY161011AY261011GA1031+000601071GE19AGL   +99999+99999GF108991031999000601999999IA2999+00809KA1120N+00811MA1999999095381MD1610321+9999MW1631REMSYN004BUFR
0188065900999992022010406204+49627+006212FM-15+037699999V0200101V00461003051CN003000199+00601+00501999999ADDGA1071+003051999GE19AGL   +99999+99999GF199999071999003051999999MA1099701999999MW1631OC101081REMMET083METAR ELLX 040620Z 01009G21KT 330V030 3000 RA BKN010 06/05 Q0997 TEMPO 5000 BKN008=
0177065900999992022010406504+49627+006212FM-15+037699999V0200101V00461003661CN003000199+00601+00501999999ADDGA1071+003661999GE19AGL   +99999+99999GF199999071999003661999999MA1099701999999MW1631REMMET080METAR ELLX 040650Z 01009KT 340V040 3000 RA BKN012 06/05 Q0997 TEMPO 5000 BKN015=
0131065900999992022010407004+49633+006233FM-12+036799999V0200101N00501003601C9003000199+00561+00521099801ADDAY161011AY261011GA1071+003601061GE19AGL   +99999+99999GF108991071999003601999999MA1999999095341MD1610221+9999MW1631REMSYN004BUFR
0178065900999992022010407204+49627+006212FM-15+037699999V0200201N00461004571CN004000199+00501+00501999999ADDGA1071+004571999GE19AGL   +99999+99999GF199999071999004571999999MA1099601999999MW1611REMMET081METAR ELLX 040720Z 02009KT 4000 -RA BKN015 05/05 Q0996 RERA TEMPO 5000 RA BKN012=
0207065900999992022010407504+49627+006212FM-15+037699999V0200301N00461005491CN008000199+00501+00501999999ADDAW1611GA1071+005491999GA2081+006101999GE19AGL   +99999+99999GF199999071999005491999999MA1099601999999REMMET094METAR ELLX 040750Z AUTO 03009KT 8000 -RA BKN018/// OVC020/// 05/05 Q0996 TEMPO 5000 RA BKN012=
0131065900999992022010408004+49633+006233FM-12+036799999V0200301N0050100090199004000199+00521+00481099781ADDAY161011AY261011GA1011+000901071GE19AGL   +99999+99999GF108991011999000901999999MA1999999095311MD1610111+9999MW1631REMSYN004BUFR
0196065900999992022010408204+49627+006212FM-15+037699999V0200301N004110061019N003000199+00501+00501999999ADDGA1021+000911999GA2071+006101999GE19AGL   +99999+99999GF199999021999000911999999MA1099701999999MW1631REMMET083METAR ELLX 040820Z 03008KT 3000 RA FEW003 BKN020 05/05 Q0997 TEMPO 5000 -RA BKN012=
0203065900999992022010408504+49627+006212FM-15+037699999V0200101N004110012219N003000199+00501+00501999999ADDGA1041+000611999GA2071+001221999GE19AGL   +99999+99999GF199999041999000611999999MA1099701999999MW1631REMMET090METAR ELLX 040850Z 01008KT 3000 RA SCT002 BKN004 05/05 Q0997 TEMPO 5000 -RA BKN008 BKN015=
0131065900999992022010409004+49633+006233FM-12+036799999V0200101N0050100060199003000199+00521+00491099811ADDAY161011AY261011GA1041+000601071GE19AGL   +99999+99999GF108991041999000601999999MA1999999095341MD1510031+9999MW1631REMSYN004BUFR
0254065900999992022010409204+49627+006212FM-15+037699999V0203601V00411002441CN009999199+00501+00401999999ADDAW1611GA1021+001831999GA2041+002441999GA3071+003051999GE19AGL   +99999+99999GF199999021999001831999999MA1099701999999REMMET125METAR ELLX 040920Z AUTO 36008KT 330V040 9999 -RA FEW006/// SCT008/// BKN010/// 05/04 Q0997 RERA TEMPO 5000 -RA BKN008 BKN015=
0196065900999992022010409504+49627+006212FM-15+037699999V0203501V004110106719N009999199+00501+00401999999ADDGA1021+002441999GA2071+010671999GE19AGL   +99999+99999GF199999021999002441999999MA1099801999999MW1611REMMET083METAR COR ELLX 040950Z 35008KT 310V020 9999 -RA FEW008 BKN035 05/04 Q0998 TEMPO RA=
0131065900999992022010410004+49633+006233FM-12+036799999V0203501N0040100240199010000199+00521+00421099881ADDAY161011AY261011GA1011+002401071GE19AGL   +99999+99999GF108991011999002401999999MA1999999095411MD1310071+9999MW1611REMSYN004BUFR
0191065900999992022010410204+49627+006212FM-15+037699999V0203601N003610027419N008000199+00501+00401999999ADDGA1041+001831999GA2071+002741999GE19AGL   +99999+99999GF199999041999001831999999MA1099801999999MW1611REMMET078METAR ELLX 041020Z 36007KT 8000 -RA SCT006 BKN009 05/04 Q0998 TEMPO RA BKN015=
0204065900999992022010410504+49627+006212FM-15+037699999V0203201V003110024419N005000199+00501+00401999999ADDGA1041+001521999GA2071+002441999GE19AGL   +99999+99999GF199999041999001521999999MA1099801999999MW1611REMMET091METAR ELLX 041050Z 32006KT 280V350 5000 -RA SCT005 BKN008 05/04 Q0998 TEMPO 4000 RA BKN015=
0131065900999992022010411004+49633+006233FM-12+036799999V0203101N0030100150199005000199+00501+00361099961ADDAY161011AY261011GA1041+001501071GE19AGL   +99999+99999GF108991041999001501999999MA1999999095481MD1310171+9999MW1611REMSYN004BUFR
0189065900999992022010411204+49627+006212FM-15+037699999V0202901N002610109719N009999199+00501+00401999999ADDGA1021+001521999GA2071+010971999GE19AGL   +99999+99999GF199999021999001521999999MA1099801999999MW1611REMMET076METAR ELLX 041120Z 29005KT 9999 -RA FEW005 BKN036 05/04 Q0998 TEMPO 4000 RA=
0197065900999992022010411504+49627+006212FM-15+037699999V0202601V003110076219N008000199+00501+00401999999ADDGA1041+001521999GA2071+007621999GE19AGL   +99999+99999GF199999041999001521999999MA1099801999999MW1611REMMET084METAR ELLX 041150Z 26006KT 230V290 8000 -RA SCT005 BKN025 05/04 Q0998 TEMPO 4000 RA=
0142065900999992022010412004+49633+006233FM-12+036799999V0202701N0030100150199008000199+00501+00401099991ADDAA106008031AY161011AY261011GA1041+001501071GE19AGL   +99999+99999GF108991041999001501999999MA1999999095511MD1110171+9999MW1611REMSYN004BUFR
0189065900999992022010412204+49627+006212FM-15+037699999V0202401N003610030519N009999199+00501+00401999999ADDGA1041+001521999GA2071+003051999GE19AGL   +99999+99999GF199999041999001521999999MA1099901999999MW1611REMMET076METAR ELLX 041220Z 24007KT 9999 -RA SCT005 BKN010 05/04 Q0999 TEMPO 4000 RA=
0189065900999992022010412504+49627+006212FM-15+037699999V0202501V004610024419N009999199+00501+00401999999ADDGA1021+001221999GA2071+002441999GE19AGL   +99999+99999GF199999021999001221999999MA1099801999999MW1611REMMET076METAR ELLX 041250Z 25009KT 220V300 9999 -RA FEW004 BKN008 05/04 Q0998 NOSIG=
0131065900999992022010413004+49633+006233FM-12+036799999V0202501N0050100120199010000199+00501+00431099991ADDAY121011AY221011GA1021+001201081GE19AGL   +99999+99999GF108991021999001201999999MA1999999095511MD1110101+9999MW1611REMSYN004BUFR
0181065900999992022010413204+49627+006212FM-15+037699999V0202501N005710018319N009999199+00501+00501999999ADDGA1021+001221999GA2071+001831999GE19AGL   +99999+99999GF199999021999001221999999MA1099801999999MW1611REMMET068METAR ELLX 041320Z 25011KT 9999 -RA FEW004 BKN006 05/05 Q0998 NOSIG=
0181065900999992022010413504+49627+006212FM-15+037699999V0202501N005110018319N009999199+00601+00501999999ADDGA1021+001221999GA2071+001831999GE19AGL   +99999+99999GF199999021999001221999999MA1099901999999MW1611REMMET068METAR ELLX 041350Z 25010KT 9999 -RA FEW004 BKN006 06/05 Q0999 NOSIG=
0131065900999992022010414004+49633+006233FM-12+036799999V0202501N0060100120199012000199+00551+00491100011ADDAY121011AY221011GA1021+001201081GE19AGL   +99999+99999GF108991021999001201999999MA1999999095541MD1210061+9999MW1611REMSYN004BUFR
0181065900999992022010414204+49627+006212FM-15+037699999V0202401N005710024419N009999199+00601+00501999999ADDGA1021+001521999GA2071+002441999GE19AGL   +99999+99999GF199999021999001521999999MA1099901999999MW1611REMMET068METAR ELLX 041420Z 24011KT 9999 -RA FEW005 BKN008 06/05 Q0999 NOSIG=
0181065900999992022010414504+49627+006212FM-15+037699999V0202301N004610030519N009999199+00501+00401999999ADDGA1021+001831999GA2071+003051999GE19AGL   +99999+99999GF199999021999001831999999MA1099901999999MW1611REMMET068METAR ELLX 041450Z 23009KT 9999 -RA FEW006 BKN010 05/04 Q0999 NOSIG=
0131065900999992022010415004+49633+006233FM-12+036799999V0202301N0040100180199018000199+00551+00451100001ADDAY161011AY221011GA1021+001801081GE19AGL   +99999+99999GF108991021999001801999999MA1999999095531MD1010021+9999MW1611REMSYN004BUFR
0171065900999992022010415204+49627+006212FM-15+037699999V0202301N00511002441CN009999199+00501+00401999999ADDGA1021+002131999GA2041+002441999GE19AGL   +99999+99999GF199999021999002131999999MA1099901999999REMMET064METAR ELLX 041520Z 23010KT 9999 FEW007 SCT008 05/04 Q0999 NOSIG=
0159065900999992022010415504+49627+006212FM-15+037699999V0202201N004619999999N009999199+00501+00401999999ADDGA1021+003051999GE19AGL   +99999+99999GF199999021999003051999999MA1100001999999MW1161REMMET062METAR ELLX 041550Z 22009KT 9999 VCSH FEW010 05/04 Q1000 NOSIG=
0131065900999992022010416004+49633+006233FM-12+036799999V0202201N0050100300199042000199+00511+00391100081ADDAY121011AY221011GA1021+003001081GE19AGL   +99999+99999GF108991021999003001999999MA1999999095601MD1310091+9999MW1151REMSYN004BUFR
0209065900999992022010416204+49627+006212FM-15+037699999V0202101N004610277419N009999199+00501+00401999999ADDGA1021+002741999GA2081+027741999GE19AGL   +99999+99999GF199999021999002741999999MA1100001999999MW1161REMMET096METAR ELLX 041620Z 21009KT 9999 VCSH FEW009 OVC091 05/04 Q1000 TEMPO 5000 SHRA FEW012TCU BKN015=
0213065900999992022010416504+49627+006212FM-15+037699999V0202201N005110103619N009999199+00501+00401999999ADDGA1021+007321081GA2071+010361999GE19AGL   +99999+99999GF199999021999007321999999MA1099901999999MW1801REMMET100METAR ELLX 041650Z 22010KT 9999 -SHRA FEW024TCU BKN034 05/04 Q0999 TEMPO 5000 SHRA FEW012TCU BKN015=
0131065900999992022010417004+49633+006233FM-12+036799999V0202201N0050100720199025000199+00471+00421100081ADDAY121011AY221011GA1021+007201081GE19AGL   +99999+99999GF108991021999007201999999MA1999999095591MD1210051+9999MW1801REMSYN004BUFR
0198065900999992022010417204+49627+006212FM-15+037699999V0202201N005710027419N009999199+00501+00401999999ADDGA1021+002131999GA2071+002741999GE19AGL   +99999+99999GF199999021999002131999999MA1099901999999REMMET091METAR ELLX 041720Z 22011KT 9999 FEW007 BKN009 05/04 Q0999 TEMPO 5000 SHRA FEW012TCU BKN015=
0198065900999992022010417504+49627+006212FM-15+037699999V0202201N005110027419N009999199+00501+00401999999ADDGA1021+002131999GA2071+002741999GE19AGL   +99999+99999GF199999021999002131999999MA1099901999999REMMET091METAR ELLX 041750Z 22010KT 9999 FEW007 BKN009 05/04 Q0999 TEMPO 5000 SHRA FEW012TCU BKN015=
0142065900999992022010418004+49633+006233FM-12+036799999V0202201N0060100210199030000199+00501+00421100061ADDAA112010031AY181011AY261011GA1021+002101081GE19AGL   +99999+99999GF108991021999002101999999MA1999999095571MD1010041+9999MW1251REMSYN004BUFR
0186065900999992022010418204+49627+006212FM-15+037699999V0202101N005710027419N009999199+00501+00401999999ADDGA1021+002131081GA2071+002741999GE19AGL   +99999+99999GF199999021999002131999999MA1099901999999MW1801REMMET073METAR ELLX 041820Z 21011KT 9999 -SHRA FEW007TCU BKN009 05/04 Q0999 NOSIG=
0171065900999992022010418504+49627+006212FM-15+037699999V0202101N004610027419N009999199+00501+00401999999ADDGA1041+002131999GA2071+002741999GE19AGL   +99999+99999GF199999041999002131999999MA1099901999999REMMET064METAR ELLX 041850Z 21009KT 9999 SCT007 BKN009 05/04 Q0999 NOSIG=
0117065900999992022010419004+49633+006233FM-12+036799999V0202101N0050199999999018000199+00501+00431100025ADDAY101011AY201011GA1999+002501999GE19AGL   +99999+99999GF108991999999002501999999MA1999999095551MW1001REMSYN004BUFR
0185065900999992022010419204+49627+006212FM-15+037699999V0202201N005710021319N009000199+00501+00501999999ADDGA1021+001831081GA2071+002131999GE19AGL   +99999+99999GF199999021999001831999999MA1099901999999MW1811REMMET072METAR ELLX 041920Z 22011KT 9000 SHRA FEW006TCU BKN007 05/05 Q0999 NOSIG=
0185065900999992022010419504+49627+006212FM-15+037699999V0202301N004610018319N006000199+00501+00501999999ADDGA1021+001221999GA2071+001831081GE19AGL   +99999+99999GF199999021999001221999999MA1099901999999MW1811REMMET072METAR ELLX 041950Z 23009KT 6000 SHRA FEW004 BKN006TCU 05/05 Q0999 NOSIG=
0117065900999992022010420004+49633+006233FM-12+036799999V0202301N0040199999999006000199+00521+00481100015ADDAY101011AY201011GA1999+001501999GE19AGL   +99999+99999GF108991999999001501999999MA1999999095551MW1001REMSYN004BUFR
0209065900999992022010420204+49627+006212FM-15+037699999V0202601N005110045719N008000199+00501+00501999999ADDGA1041+001831999GA2021+003351081GA3071+004571999GE19AGL   +99999+99999GF199999041999001831999999MA1099901999999MW1801REMMET080METAR ELLX 042020Z 26010KT 8000 -SHRA SCT006 FEW011TCU BKN015 05/05 Q0999 NOSIG=
0183065900999992022010420504+49627+006212FM-15+037699999V0202501N004110051819N007000199+00501+00401999999ADDGA1021+001831999GA2071+005181999GE19AGL   +99999+99999GF199999021999001831999999MA1099901999999MW1801REMMET070METAR ELLX 042050Z 25008KT 7000 -SHRA FEW006 BKN017 05/04 Q0999 NOSIG=
0117065900999992022010421004+49633+006233FM-12+036799999V0202501N0040199999999012000199+00511+00451100025ADDAY101011AY201011GA1999+002501999GE19AGL   +99999+99999GF108991999999002501999999MA1999999095551MW1001REMSYN004BUFR
0208065900999992022010421204+49627+006212FM-15+037699999V0202801N00411004571CN005000199+00501+00401999999ADDGA1021+001521999GA2041+004571081GA3071+006101999GE19AGL   +99999+99999GF199999021999001521999999MA1099901999999MW1811REMMET079METAR ELLX 042120Z 28008KT 5000 SHRA FEW005 SCT015TCU BKN020 05/04 Q0999 NOSIG=
0171065900999992022010421504+49627+006212FM-15+037699999V0202201N002610082319N009999199+00501+00401999999ADDGA1021+001521999GA2071+008231999GE19AGL   +99999+99999GF199999021999001521999999MA1099901999999REMMET064METAR ELLX 042150Z 22005KT 9999 FEW005 BKN027 05/04 Q0999 NOSIG=
0117065900999992022010422004+49633+006233FM-12+036799999V0202201N0020199999999015000199+00471+00401100025ADDAY101011AY201011GA1999+001501999GE19AGL   +99999+99999GF108991999999001501999999MA1999999095551MW1001REMSYN004BUFR
0176065900999992022010422204+49627+006212FM-15+037699999V0202201N004610036619N009999199+00501+00401999999ADDGA1021+002441999GA2071+003661999GE19AGL   +99999+99999GF199999021999002441999999MA1099901999999REMMET069METAR ELLX 042220Z 22009KT 9999 FEW008 BKN012 05/04 Q0999 RERA NOSIG=
0181065900999992022010422504+49627+006212FM-15+037699999V0202401N005710033519N009999199+00501+00401999999ADDGA1041+002441999GA2071+003351999GE19AGL   +99999+99999GF199999041999002441999999MA1099901999999MW1511REMMET068METAR ELLX 042250Z 24011KT 9999 -DZ SCT008 BKN011 05/04 Q0999 NOSIG=
0131065900999992022010423004+49633+006233FM-12+036799999V0202401N0050100240199015000199+00471+00381100031ADDAY121011AY221011GA1041+002401071GE19AGL   +99999+99999GF108991041999002401999999MA1999999095541MD1810011+9999MW1501REMSYN004BUFR
0171065900999992022010423204+49627+006212FM-15+037699999V0202401N006210030519N009999199+00501+00401999999ADDGA1021+002131999GA2071+003051999GE19AGL   +99999+99999GF199999021999002131999999MA1099901999999REMMET064METAR ELLX 042320Z 24012KT 9999 FEW007 BKN010 05/04 Q0999 NOSIG=
0171065900999992022010423504+49627+006212FM-15+037699999V0202301N005110027419N007000199+00501+00401999999ADDGA1021+002131999GA2071+002741999GE19AGL   +99999+99999GF199999021999002131999999MA1099901999999REMMET064METAR ELLX 042350Z 23010KT 7000 FEW007 BKN009 05/04 Q0999 NOSIG=
0117065900999992022010500004+49633+006233FM-12+036799999V0202301N0050199999999007000199+00501+00401100025ADDAY101011AY201011GA1999+001501999GE19AGL   +99999+99999GF108991999999001501999999MA1999999095551MW1001REMSYN004BUFR
0227065900999992022010500204+49627+006212FM-15+037699999V0202801V00931002741CN007000199+00501+00401999999ADDGA1041+001831999GA2041+002741081GA3071+003351999GE19AGL   +99999+99999GF199999041999001831999999MA1099901999999MW1811OC101601REMMET090METAR ELLX 050020Z 28018G31KT 230V340 7000 SHRA SCT006 SCT009TCU BKN011 05/04 Q0999 NOSIG=
0239065900999992022010500504+49627+006212FM-15+037699999V0203301V00771003351CN009999199+00201+00101999999ADDAW1811GA1021+002441999GA2041+003351999GA3071+004571999GE19AGL   +99999+99999GF199999021999002441999999MA1100001999999OC101391REMMET102METAR ELLX 050050Z AUTO 33015G27KT 300V360 9999 -SHRA FEW008/// SCT011/// BKN015/// 02/01 Q1000 NOSIG=
0131065900999992022010501004+49633+006233FM-12+036799999V0203201N0070199999999054000199+00211+00061100171ADDAW1611AY141011AY211011GA1011+002701999GE19AGL   +99999+99999GF108991011999002701999999MA1999999095631MD1310081+9999REMSYN004BUFR
0220065900999992022010501204+49627+006212FM-15+037699999V0203201N006210039619N009999199+00201+00001999999ADDAW1811GA1041+003351999GA2071+003961999GA3081+004881999GE19AGL   +99999+99999GF199999041999003351999999MA1100101999999REMMET091METAR ELLX 050120Z AUTO 32012KT 9999 -SHRA SCT011/// BKN013/// OVC016/// 02/00 Q1001 NOSIG=
0217065900999992022010501504+49627+006212FM-15+037699999V0203101V00571004571CN009999199+00201+00001999999ADDGA1021+003661999GA2041+004571999GA3071+005491999GE19AGL   +99999+99999GF199999021999003661999999MA1100201999999REMMET094METAR ELLX 050150Z AUTO 31011KT 290V350 9999 FEW012/// SCT015/// BKN018/// 02/M00 Q1002 NOSIG=
0131065900999992022010502004+49633+006233FM-12+036799999V0203101N0060199999999054000199+00161+00001100341ADDAW1001AY161011AY251011GA1021+003601999GE19AGL   +99999+99999GF108991021999003601999999MA1999999095791MD1310251+9999REMSYN004BUFR
0183065900999992022010502204+49627+006212FM-15+037699999V0203001N005710164619N009999199+00201-00101999999ADDGA1021+004271999GA2081+016461999GE19AGL   +99999+99999GF199999021999004271999999MA1100201999999REMMET076METAR ELLX 050220Z AUTO 30011KT 9999 FEW014/// OVC054/// 02/M01 Q1002 NOSIG=
0180065900999992022010502504+49627+006212FM-15+037699999V0202901V005710061019N009999199+00101-00101999999ADDGA1021+004881999GA2071+006101999GE19AGL   +99999+99999GF199999021999004881999999MA1100301999999REMMET073METAR ELLX 050250Z 29011KT 260V320 9999 FEW016 BKN020 01/M01 Q1003 NOSIG=
0131065900999992022010503004+49633+006233FM-12+036799999V0202901N0060100480199025000199+00121-00061100491ADDAY181011AY221011GA1011+004801081GE19AGL   +99999+99999GF108991011999004801999999MA1999999095921MD1310371+9999MW1021REMSYN004BUFR
0183065900999992022010503204+49627+006212FM-15+037699999V0203001N005710164619N009999199+00101-00101999999ADDGA1021+005491999GA2081+016461999GE19AGL   +99999+99999GF199999021999005491999999MA1100301999999REMMET076METAR ELLX 050320Z AUTO 30011KT 9999 FEW018/// OVC054/// 01/M01 Q1003 NOSIG=
0209065900999992022010503504+49627+006212FM-15+037699999V0202901N00721007321CN009999199+00101-00201999999ADDGA1021+005491999GA2041+007321999GA3071+008231999GE19AGL   +99999+99999GF199999021999005491999999MA1100401999999REMMET086METAR ELLX 050350Z AUTO 29014KT 9999 FEW018/// SCT024/// BKN027/// 01/M02 Q1004 NOSIG=
0131065900999992022010504004+49633+006233FM-12+036799999V0202901N0070199999999048000199+00111-00131100601ADDAY101011AY201011GA1021+004201999GE19AGL   +99999+99999GF108991021999004201999999MA1999999096031MD1110401+9999MW1001REMSYN004BUFR
0149065900999992022010504204+49627+006212FM-15+037699999V0202801N006719999999N009999199+00101-00201999999ADDGA1041+007011999GE19AGL   +99999+99999GF199999041999007011999999MA1100501999999REMMET058METAR ELLX 050420Z 28013KT 9999 SCT023 01/M02 Q1005 NOSIG=
0157065900999992022010504504+49627+006212FM-15+037699999V0202701N005119999999N009999199+00001-00301999999ADDGA1021+008531999GE19AGL   +99999+99999GF199999021999008531999999MA1100501999999REMMET066METAR ELLX 050450Z AUTO 27010KT 9999 FEW028/// 00/M03 Q1005 NOSIG=
0131065900999992022010505004+49633+006233FM-12+036799999V0202801N0050122000199030000199+00061-00281100711ADDAY101011AY201011GA1031+008401999GE19AGL   +99999+99999GF103991031999008401999999MA1999999096121MD1110331+9999MW1001REMSYN004BUFR
0172065900999992022010505204+49627+006212FM-15+037699999V0202701N005110091419N009999199+00001-00201999999ADDGA1021+007621999GA2071+009141999GE19AGL   +99999+99999GF199999021999007621999999MA1100501999999REMMET065METAR ELLX 050520Z 27010KT 9999 FEW025 BKN030 00/M02 Q1005 NOSIG=
0172065900999992022010505504+49627+006212FM-15+037699999V0202601N006210097519N009999199+00001-00201999999ADDGA1021+004571999GA2071+009751999GE19AGL   +99999+99999GF199999021999004571999999MA1100601999999REMMET065METAR ELLX 050550Z 26012KT 9999 FEW015 BKN032 00/M02 Q1006 NOSIG=
0167065900999992022010506004+49633+006233FM-12+036799999V0202701N0050100450199025000199+00001-00231100791ADDAA112003031AY181011AY221011GA1021+004501081GE19AGL   +99999+99999GF107991021999004501999999IA2999-00109KA1120N-00011MA1999999096191MD1110291+9999MW1021REMSYN004BUFR
0150065900999992022010506204+49627+006212FM-15+037699999V0202701N00571003661CN009999199+00001-00201999999ADDGA1071+003661999GE19AGL   +99999+99999GF199999071999003661999999MA1100601999999REMMET059METAR ELLX 050620Z 27011KT 9999 BKN012 M00/M02 Q1006 NOSIG=
0150065900999992022010506504+49627+006212FM-15+037699999V0202601N00621003661CN009999199+00001-00201999999ADDGA1071+003661999GE19AGL   +99999+99999GF199999071999003661999999MA1100701999999REMMET059METAR ELLX 050650Z 26012KT 9999 BKN012 M00/M02 Q1007 NOSIG=
0131065900999992022010507004+49633+006233FM-12+036799999V0202601N00701003601C9020000199-00021-00201100901ADDAY101011AY201011GA1051+003601081GE19AGL   +99999+99999GF107991051999003601999999MA1999999096291MD1110261+9999MW1001REMSYN004BUFR
0165065900999992022010507204+49627+006212FM-15+037699999V0202601V006219999999N009999199+00001-00201999999ADDGA1041+003051999GE19AGL   +99999+99999GF199999041999003051999999MA1100701999999REMMET074METAR ELLX 050720Z 26012KT 240V300 9999 SCT010 M00/M02 Q1007 TEMPO BKN012=
0180065900999992022010507504+49627+006212FM-15+037699999V0202601N007710082319N009999199+00001-00201999999ADDGA1041+003351999GA2071+008231999GE19AGL   +99999+99999GF199999041999003351999999MA1100701999999REMMET073METAR ELLX 050750Z 26015KT 9999 SCT011 BKN027 M00/M02 Q1007 TEMPO BKN012=
0131065900999992022010508004+49633+006233FM-12+036799999V0202601N0070100360199025000199-00051-00211100991ADDAY101011AY201011GA1041+003601081GE19AGL   +99999+99999GF107991041999003601999999MA1999999096371MD1110251+9999MW1001REMSYN004BUFR
0173065900999992022010508204+49627+006212FM-15+037699999V0202601N006710076219N009999199+00001-00201999999ADDGA1021+003661999GA2071+007621999GE19AGL   +99999+99999GF199999021999003661999999MA1100801999999REMMET066METAR ELLX 050820Z 26013KT 9999 FEW012 BKN025 M00/M02 Q1008 NOSIG=
0184065900999992022010508504+49627+006212FM-15+037699999V0202601N006710073219N009999199+00001-00201999999ADDGA1021+004271999GA2081+007321999GE19AGL   +99999+99999GF199999021999004271999999MA1100801999999REMMET077METAR ELLX 050850Z AUTO 26013KT 9999 FEW014/// OVC024/// M00/M02 Q1008 NOSIG=
0131065900999992022010509004+49633+006233FM-12+036799999V0202601N0060100360199025000199-00021-00231101061ADDAY101011AY201011GA1021+003601081GE19AGL   +99999+99999GF107991021999003601999999MA1999999096441MD1210221+9999MW1001REMSYN004BUFR
0172065900999992022010509204+49627+006212FM-15+037699999V0202601N005710061019N009999199+00001-00201999999ADDGA1041+003661999GA2071+006101999GE19AGL   +99999+99999GF199999041999003661999999MA1100901999999REMMET065METAR ELLX 050920Z 26011KT 9999 SCT012 BKN020 00/M02 Q1009 NOSIG=
0172065900999992022010509504+49627+006212FM-15+037699999V0202601N006710076219N009999199+00001-00201999999ADDGA1041+003661999GA2071+007621999GE19AGL   +99999+99999GF199999041999003661999999MA1100901999999REMMET065METAR ELLX 050950Z 26013KT 9999 SCT012 BKN025 00/M02 Q1009 NOSIG=
0131065900999992022010510004+49633+006233FM-12+036799999V0202601N0070100360199025000199+00001-00221101151ADDAY101011AY201011GA1041+003601081GE19AGL   +99999+99999GF106991041999003601999999MA1999999096531MD1310241+9999MW1001REMSYN004BUFR
0149065900999992022010510204+49627+006212FM-15+037699999V0202601N00671004571CN009999199+00001-00301999999ADDGA1071+004571999GE19AGL   +99999+99999GF199999071999004571999999MA1101001999999REMMET058METAR ELLX 051020Z 26013KT 9999 BKN015 00/M03 Q1010 NOSIG=
0149065900999992022010510504+49627+006212FM-15+037699999V0202701N00671005181CN009999199+00101-00301999999ADDGA1071+005181999GE19AGL   +99999+99999GF199999071999005181999999MA1101001999999REMMET058METAR ELLX 051050Z 27013KT 9999 BKN017 01/M03 Q1010 NOSIG=
0131065900999992022010511004+49633+006233FM-12+036799999V0202701N00601005101C9025000199+00051-00251101211ADDAY101011AY201011GA1051+005101081GE19AGL   +99999+99999GF107991051999005101999999MA1999999096601MD1210231+9999MW1001REMSYN004BUFR
0149065900999992022010511204+49627+006212FM-15+037699999V0202701N00721006401CN009999199+00101-00301999999ADDGA1071+006401999GE19AGL   +99999+99999GF199999071999006401999999MA1101001999999REMMET058METAR ELLX 051120Z 27014KT 9999 BKN021 01/M03 Q1010 NOSIG=
0149065900999992022010511504+49627+006212FM-15+037699999V0202601N00621007321CN009999199+00101-00301999999ADDGA1071+007321999GE19AGL   +99999+99999GF199999071999007321999999MA1101001999999REMMET058METAR ELLX 051150Z 26012KT 9999 BKN024 01/M03 Q1010 NOSIG=
0142065900999992022010512004+49633+006233FM-12+036799999V0202601N00701007201C9025000199+00101-00251101221ADDAA106999999AY101011AY201011GA1071+007201061GE19AGL   +99999+99999GF107991071999007201999999MA1999999096611MD1110171+9999MW1001REMSYN004BUFR
0149065900999992022010512204+49627+006212FM-15+037699999V0202501N00771005491CN009999199+00101-00201999999ADDGA1071+005491999GE19AGL   +99999+99999GF199999071999005491999999MA1101001999999REMMET058METAR ELLX 051220Z 25015KT 9999 BKN018 01/M02 Q1010 NOSIG=
0149065900999992022010512504+49627+006212FM-15+037699999V0202501N00771009141CN009999199+00101-00201999999ADDGA1071+009141999GE19AGL   +99999+99999GF199999071999009141999999MA1101001999999REMMET058METAR ELLX 051250Z 25015KT 9999 BKN030 01/M02 Q1010 NOSIG=
0209065900999992022010513004+49617+006217FM-12+037699999V0202501N00801009001CN025000199+00121-00191101191ADDGA1071+009001061GE19AGL   +99999+99999GF108991071999009001999999MA1999999096591MD1990061+9999OD139901001999OD259900801999REMSYN07606590 42575 82508 10012 21019 39659 40119 50006 875// 333 87630 91110 91208=
0149065900999992022010513204+49627+006212FM-15+037699999V0202601N00721004881CN009999199+00101-00201999999ADDGA1071+004881999GE19AGL   +99999+99999GF199999071999004881999999MA1101001999999REMMET058METAR ELLX 051320Z 26014KT 9999 BKN016 01/M02 Q1010 NOSIG=
0149065900999992022010513504+49627+006212FM-15+037699999V0202701N00571004881CN009999199+00101-00101999999ADDGA1071+004881999GE19AGL   +99999+99999GF199999071999004881999999MA1101001999999REMMET058METAR ELLX 051350Z 27011KT 9999 BKN016 01/M01 Q1010 NOSIG=
0131065900999992022010514004+49633+006233FM-12+036799999V0202701N00601004801C9028000199+00121-00141101231ADDAY101011AY201011GA1071+004801061GE19AGL   +99999+99999GF108991071999004801999999MA1999999096631MD1310031+9999MW1001REMSYN004BUFR
0172065900999992022010514204+49627+006212FM-15+037699999V0202601N006210076219N009999199+00101-00101999999ADDGA1021+004271999GA2071+007621999GE19AGL   +99999+99999GF199999021999004271999999MA1101001999999REMMET065METAR ELLX 051420Z 26012KT 9999 FEW014 BKN025 01/M01 Q1010 NOSIG=
0209065900999992022010514504+49627+006212FM-15+037699999V0202701N005710073219N009999199+00201-00101999999ADDGA1021+004571999GA2071+007321999GA3081+008231999GE19AGL   +99999+99999GF199999021999004571999999MA1101101999999REMMET086METAR ELLX 051450Z AUTO 27011KT 9999 FEW015/// BKN024/// OVC027/// 02/M01 Q1011 NOSIG=
0131065900999992022010515004+49633+006233FM-12+036799999V0202701N0060100450199029000199+00151-00111101271ADDAY101011AY201011GA1011+004501081GE19AGL   +99999+99999GF107991011999004501999999MA1999999096671MD1310061+9999MW1001REMSYN004BUFR
0172065900999992022010515204+49627+006212FM-15+037699999V0202601N007210106719N009999199+00101-00101999999ADDGA1021+007011999GA2071+010671999GE19AGL   +99999+99999GF199999021999007011999999MA1101101999999REMMET065METAR ELLX 051520Z 26014KT 9999 FEW023 BKN035 01/M01 Q1011 NOSIG=
0172065900999992022010515504+49627+006212FM-15+037699999V0202601N006210106719N009999199+00101-00101999999ADDGA1021+007621999GA2071+010671999GE19AGL   +99999+99999GF199999021999007621999999MA1101101999999REMMET065METAR ELLX 051550Z 26012KT 9999 FEW025 BKN035 01/M01 Q1011 NOSIG=
0231065900999992022010516004+49617+006217FM-12+037699999V0202601N00701009901CN025000199+00141-00081101331ADDGA1011+007501081GA2061+009901061GE19AGL   +99999+99999GF106991011999007501999999MA1999999096731MD1310141+9999OD139901001999OD259900801999REMSYN08206590 42575 62607 10014 21008 39673 40133 53014 868// 333 81825 86633 91110 91208=
0149065900999992022010516204+49627+006212FM-15+037699999V0202701N00671007621CN009999199+00201-00101999999ADDGA1071+007621999GE19AGL   +99999+99999GF199999071999007621999999MA1101201999999REMMET058METAR ELLX 051620Z 27013KT 9999 BKN025 02/M01 Q1012 NOSIG=
0172065900999992022010516504+49627+006212FM-15+037699999V0202601N005710106719N009999199+00201-00101999999ADDGA1021+007011999GA2071+010671999GE19AGL   +99999+99999GF199999021999007011999999MA1101201999999REMMET065METAR ELLX 051650Z 26011KT 9999 FEW023 BKN035 02/M01 Q1012 NOSIG=
0131065900999992022010517004+49633+006233FM-12+036799999V0202601N0060100690199023000199+00151-00071101371ADDAY101011AY201011GA1011+006901081GE19AGL   +99999+99999GF107991011999006901999999MA1999999096771MD1210141+9999MW1001REMSYN004BUFR
0149065900999992022010517204+49627+006212FM-15+037699999V0202501N00461010971CN009999199+00101-00101999999ADDGA1071+010971999GE19AGL   +99999+99999GF199999071999010971999999MA1101201999999REMMET058METAR ELLX 051720Z 25009KT 9999 BKN036 01/M01 Q1012 NOSIG=
0149065900999992022010517504+49627+006212FM-15+037699999V0202701N00571007621CN009999199+00201+00001999999ADDGA1071+007621999GE19AGL   +99999+99999GF199999071999007621999999MA1101201999999REMMET058METAR ELLX 051750Z 27011KT 9999 BKN025 02/M00 Q1012 NOSIG=
0142065900999992022010518004+49633+006233FM-12+036799999V0202701N00601007501C9024000199+00161-00061101441ADDAA112999999AY101011AY201011GA1071+007501061GE19AGL   +99999+99999GF108991071999007501999999MA1999999096841MD1310171+9999MW1001REMSYN004BUFR
0157065900999992022010518204+49627+006212FM-15+037699999V0202701V00571004881CN009999199+00201+00001999999ADDGA1071+004881999GE19AGL   +99999+99999GF199999071999004881999999MA1101301999999REMMET066METAR ELLX 051820Z 27011KT 240V300 9999 BKN016 02/M00 Q1013 NOSIG=
0172065900999992022010518504+49627+006212FM-15+037699999V0202701N005710073219N009999199+00201+00001999999ADDGA1021+004881999GA2071+007321999GE19AGL   +99999+99999GF199999021999004881999999MA1101301999999REMMET065METAR ELLX 051850Z 27011KT 9999 FEW016 BKN024 02/M00 Q1013 NOSIG=
0131065900999992022010519004+49633+006233FM-12+036799999V0202701N0050100480199026000199+00171-00041101481ADDAY101011AY201011GA1011+004801081GE19AGL   +99999+99999GF108991011999004801999999MA1999999096881MD1210151+9999MW1001REMSYN004BUFR
0172065900999992022010519204+49627+006212FM-15+037699999V0202701N005710109719N009999199+00201+00001999999ADDGA1021+005181999GA2071+010971999GE19AGL   +99999+99999GF199999021999005181999999MA1101301999999REMMET065METAR ELLX 051920Z 27011KT 9999 FEW017 BKN036 02/M00 Q1013 NOSIG=
0172065900999992022010519504+49627+006212FM-15+037699999V0202701N005110109719N009999199+00201+00001999999ADDGA1021+004271999GA2071+010971999GE19AGL   +99999+99999GF199999021999004271999999MA1101301999999REMMET065METAR ELLX 051950Z 27010KT 9999 FEW014 BKN036 02/M00 Q1013 NOSIG=
0131065900999992022010520004+49633+006233FM-12+036799999V0202701N0050100450199024000199+00201+00001101521ADDAY101011AY201011GA1021+004501081GE19AGL   +99999+99999GF108991021999004501999999MA1999999096921MD1110151+9999MW1001REMSYN004BUFR
0172065900999992022010520204+49627+006212FM-15+037699999V0202801N005110121919N009999199+00201+00001999999ADDGA1041+004571999GA2071+012191999GE19AGL   +99999+99999GF199999041999004571999999MA1101301999999REMMET065METAR ELLX 052020Z 28010KT 9999 SCT015 BKN040 02/M00 Q1013 NOSIG=
0171065900999992022010520504+49627+006212FM-15+037699999V0202701N007210061019N009999199+00201+00001999999ADDGA1041+004571999GA2071+006101999GE19AGL   +99999+99999GF199999041999004571999999MA1101301999999REMMET064METAR ELLX 052050Z 27014KT 9999 SCT015 BKN020 02/00 Q1013 NOSIG=
0131065900999992022010521004+49633+006233FM-12+036799999V0202601N0070100420199022000199+00201+00011101531ADDAY101011AY201011GA1031+004201081GE19AGL   +99999+99999GF108991031999004201999999MA1999999096931MD1110091+9999MW1001REMSYN004BUFR
0208065900999992022010521204+49627+006212FM-15+037699999V0202701N005710045719N009999199+00201+00001999999ADDGA1041+003961999GA2071+004571999GA3081+005491999GE19AGL   +99999+99999GF199999041999003961999999MA1101401999999REMMET085METAR ELLX 052120Z AUTO 27011KT 9999 SCT013/// BKN015/// OVC018/// 02/00 Q1014 NOSIG=
0171065900999992022010521504+49627+006212FM-15+037699999V0202801N005110042719N009999199+00201+00001999999ADDGA1041+003661999GA2071+004271999GE19AGL   +99999+99999GF199999041999003661999999MA1101401999999REMMET064METAR ELLX 052150Z 28010KT 9999 SCT012 BKN014 02/00 Q1014 NOSIG=
0131065900999992022010522004+49633+006233FM-12+036799999V0202801N00501003601C9023000199+00201+00011101581ADDAY101011AY201011GA1071+003601081GE19AGL   +99999+99999GF108991071999003601999999MA1999999096981MD1310101+9999MW1001REMSYN004BUFR
0171065900999992022010522204+49627+006212FM-15+037699999V0202801N004610039619N009999199+00201+00001999999ADDGA1041+003351999GA2071+003961999GE19AGL   +99999+99999GF199999041999003351999999MA1101401999999REMMET064METAR ELLX 052220Z 28009KT 9999 SCT011 BKN013 02/00 Q1014 NOSIG=
0179065900999992022010522504+49627+006212FM-15+037699999V0202901V004610039619N009999199+00201+00001999999ADDGA1041+003351999GA2071+003961999GE19AGL   +99999+99999GF199999041999003351999999MA1101401999999REMMET072METAR ELLX 052250Z 29009KT 250V320 9999 SCT011 BKN013 02/00 Q1014 NOSIG=
0131065900999992022010523004+49633+006233FM-12+036799999V0202901N0050100330199025000199+00221+00041101621ADDAY101011AY201011GA1031+003301081GE19AGL   +99999+99999GF108991031999003301999999MA1999999097021MD1310101+9999MW1001REMSYN004BUFR
0179065900999992022010523204+49627+006212FM-15+037699999V0202901V004610039619N009999199+00201+00101999999ADDGA1041+003351999GA2071+003961999GE19AGL   +99999+99999GF199999041999003351999999MA1101401999999REMMET072METAR ELLX 052320Z 29009KT 270V340 9999 SCT011 BKN013 02/01 Q1014 NOSIG=
0179065900999992022010523504+49627+006212FM-15+037699999V0203001V005110039619N009999199+00301+00101999999ADDGA1041+003051999GA2071+003961999GE19AGL   +99999+99999GF199999041999003051999999MA1101401999999REMMET072METAR ELLX 052350Z 30010KT 270V330 9999 SCT010 BKN013 03/01 Q1014 NOSIG=
0142065900999992022010600004+49633+006233FM-12+036799999V0202901N0050100300199023000199+00251+00061101651ADDAA106999999AY101011AY201011GA1031+003001081GE19AGL   +99999+99999GF108991031999003001999999MA1999999097051MD1110121+9999MW1001REMSYN004BUFR
0190065900999992022010600204+49627+006212FM-15+037699999V0203001V004110045719N009999199+00301+00101999999ADDGA1021+003961999GA2081+004571999GE19AGL   +99999+99999GF199999021999003961999999MA1101401999999REMMET083METAR ELLX 060020Z AUTO 30008KT 270V330 9999 FEW013/// OVC015/// 03/01 Q1014 NOSIG=
0171065900999992022010600504+49627+006212FM-15+037699999V0203101N005110054919N009999199+00301+00101999999ADDGA1041+003961999GA2071+005491999GE19AGL   +99999+99999GF199999041999003961999999MA1101501999999REMMET064METAR ELLX 060050Z 31010KT 9999 SCT013 BKN018 03/01 Q1015 NOSIG=
0131065900999992022010601004+49633+006233FM-12+036799999V0203101N0050100390199020000199+00271+00061101651ADDAY101011AY201011GA1031+003901081GE19AGL   +99999+99999GF108991031999003901999999MA1999999097061MD1110081+9999MW1001REMSYN004BUFR
0208065900999992022010601204+49627+006212FM-15+037699999V0203101N004110048819N009999199+00301+00101999999ADDGA1021+003961999GA2071+004881999GA3081+005791999GE19AGL   +99999+99999GF199999021999003961999999MA1101501999999REMMET085METAR ELLX 060120Z AUTO 31008KT 9999 FEW013/// BKN016/// OVC019/// 03/01 Q1015 NOSIG=
0200065900999992022010601504+49627+006212FM-15+037699999V0203101V004110112819N009000199+00301+00101999999ADDAW1611GA1021+002741999GA2081+011281999GE19AGL   +99999+99999GF199999021999002741999999MA1101501999999REMMET087METAR ELLX 060150Z AUTO 31008KT 280V340 9000 -RA FEW009/// OVC037/// 03/01 Q1015 NOSIG=
0131065900999992022010602004+49633+006233FM-12+036799999V0203101N0040199999999007000199+00271+00061101721ADDAW1611AY101011AY201011GA1011+002701999GE19AGL   +99999+99999GF108991011999002701999999MA1999999097121MD1310101+9999REMSYN004BUFR
0156065900999992022010602204+49627+006212FM-15+037699999V0203001N00361013411CN009999199+00201+00101999999ADDGA1071+013411999GE19AGL   +99999+99999GF199999071999013411999999MA1101501999999REMMET065METAR ELLX 060220Z AUTO 30007KT 9999 BKN044/// 02/01 Q1015 NOSIG=
0112065900999992022010602504+49627+006212FM-15+037699999V0202801N003112200019N009999199+00201+00001999999ADDGF100991999999999999999999MA1101601999999REMMET059METAR ELLX 060250Z AUTO 28006KT 9999 NCD 02/00 Q1016 NOSIG=
0131065900999992022010603004+49633+006233FM-12+036799999V0202901N0030122000199017000199+00171+00051101781ADDAY101011AY201011GA1011+018001999GE19AGL   +99999+99999GF101991011999018001999999MA1999999097171MD1310121+9999MW1001REMSYN004BUFR
0216065900999992022010603204+49627+006212FM-15+037699999V0203201V004110048819N009999199+00201+00001999999ADDGA1021+003961999GA2071+004881999GA3071+005791999GE19AGL   +99999+99999GF199999021999003961999999MA1101601999999REMMET093METAR ELLX 060320Z AUTO 32008KT 280V340 9999 FEW013/// BKN016/// BKN019/// 02/00 Q1016 NOSIG=
0148065900999992022010603504+49627+006212FM-15+037699999V0203101N00261004271CN009999199+00201+00001999999ADDGA1071+004271999GE19AGL   +99999+99999GF199999071999004271999999MA1101601999999REMMET057METAR ELLX 060350Z 31005KT 9999 BKN014 02/00 Q1016 NOSIG=
0131065900999992022010604004+49633+006233FM-12+036799999V0203101N00301004201C9023000199+00201+00031101841ADDAY101011AY201011GA1071+004201061GE19AGL   +99999+99999GF108991071999004201999999MA1999999097221MD1110161+9999MW1001REMSYN004BUFR
0171065900999992022010604204+49627+006212FM-15+037699999V0203101N002610048819N009999199+00201+00001999999ADDGA1041+004271999GA2071+004881999GE19AGL   +99999+99999GF199999041999004271999999MA1101601999999REMMET064METAR ELLX 060420Z 31005KT 9999 SCT014 BKN016 02/00 Q1016 NOSIG=
0149065900999992022010604504+49627+006212FM-15+037699999V0203001N003119999999N009999199+00201+00001999999ADDGA1041+007621999GE19AGL   +99999+99999GF199999041999007621999999MA1101701999999REMMET058METAR ELLX 060450Z 30006KT 9999 SCT025 02/M00 Q1017 NOSIG=
0131065900999992022010605004+49633+006233FM-12+036799999V0203001N0030122000199020000199+00211+00001101901ADDAY101011AY201011GA1041+007501061GE19AGL   +99999+99999GF104991041999007501999999MA1999999097281MD1310161+9999MW1001REMSYN004BUFR
